:060000000A128A11FC2F18
:100EBC0083160313071108108810F93092000C30B8
:100ECC00831203139700053092000800043071025E
:100EDC00003003197002031C742F752F792FFF300B
:100EEC00F0000330F1007108F3007008F2000310F9
:100EFC00F30CF20C0310F30CF20C720883120313B4
:100F0C00950070080339F20004300310F20DFF3E17
:100F1C00031D8B2F1708CF39720497000800831616
:100F2C0003178901831603130614811315140A126F
:100F3C008A115E270A128A11F701F8018312031332
:100F4C000618A92FAA2FE42F8230F500DD30F4000B
:100F5C00F40BAE2FF50BAE2FB32F83120313061821
:100F6C00B82FB92FE42F770878040319BE2FC02FA0
:100F7C000130C12F0030F400F5017408F70075083A
:100F8C00F800081088100030F000F1000A128A11E5
:100F9C006C270A128A110630F6001330F500AD30BA
:100FAC00F400F40BD72FF50BD72FF60BD72FDE2F22
:100FBC0083120313061CE32FE42FDE2F770878042B
:100FCC00031DE92FEA2FF62F08148810BC30F0000F
:100FDC000230F1000A128A116C270A128A11A42F0E
:100FEC0008108814EC2F0A128A11002883010A12A7
:040FFC008A11952F92
:02400E00F1239C
:00000001FF
