:060000000A128A110C280F
:10000800FE00030EF0000A08F1000A128A11F02817
:100018000A128A110F28F901FA01FB01831203134E
:10002800A001A101A201A301A401A501A601A701A4
:10003800A801A901AA01AB01AC0183010A128A1126
:10004800252883120313B101B2010A128A115C2117
:100058000A128A110A128A1149210A128A110A12ED
:100068008A1136210A128A1100300A128A111421C3
:100078000A128A11730883120313B0007208AF00C2
:1000880001300A128A1114210A128A117308831284
:100098000313B2007208B1003008F3002F08F20011
:1000A8000A128A11C7200A128A11FF30F20003309F
:1000B800F300831203133208AE003108AD00063096
:1000C800FF000310AD0DAE0DFF0B65282D08F400E1
:1000D8002E08F5000A128A1185200A128A11720860
:1000E80083120313AC000D3083120313AE00FB30F0
:1000F800AD00AD0B7D28AE0B7D2838280A128A1179
:100108000C28F601F7017208730403198C288D284E
:10011800C2280130F800992801300310F20DF30DC0
:10012800FF3E031D91280130F807F31F9C289D28E6
:10013800902801300310F60DF70DFF3E031D9E2891
:1001480073087502031DAA2872087402031CAD28DF
:10015800AE28B5287208F4027308031CF503F502EB
:10016800761401300310F30CF20CFF3E031DB62881
:100178000130F802031DC128C2289D287708F30022
:100188007608F20008000430730200300319720286
:10019800031CCF28D028D428FF30F2000330F30006
:1001A8007308F5007208F4000310F50CF40C031042
:1001B800F50CF40C740883120313950072080339C4
:1001C800F40004300310F40DFF3E031DE628170861
:1001D800CF39740497000800831203130C1CF52808
:1001E800F6280D29FF308F009C308E000130FB0768
:1001F80040307B02031C012902290329FB012C083A
:100208007B020318082909290B2908140C2908104E
:100218000C1071088A00700E8300FE0E7E0E090015
:10022800F50075080F39F40002300310F40DFF3E95
:10023800031D1929831203131F08C33974049F006F
:100248000D30F400F40B2629831203139F149F1812
:100258002E292F292B291E08F300831603131E08A5
:10026800F200080083160313081083120313081002
:1002780001309000FF308F009C308E000C108316E8
:1002880003130C140B178B1708008316031307119D
:10029800FF3092008312031395010C309700013050
:1002A800831603139D000530831203139200080080
:1002B8000330831603178800890183160313051476
:1002C80080309F008130831203139F000D30F200AD
:0602D800F20B6C29080086
:04400E00F22FFF3F4F
:00000001FF
