:060000000A128A11F82F1C
:100ECE006A2F1A08F400831203138C1A6F2F702FD7
:100EDE00682F0800831603178801890183160313F0
:100EEE000810831203130810080083120313981CB2
:100EFE00812F822F872F18120000831203131816CA
:100F0E000800831203138C1A8D2F8E2F902F003012
:100F1E00A42F0A128A117C270A128A118312031334
:100F2E00181D9A2F9B2F9F2F1A08F5000030A42F03
:100F3E00740884001A088000013008008316031319
:100F4E00071387179801831203139801831603174B
:100F5E0087018715831603139A01CF309900181253
:100F6E0018158312031398178316031398168312FA
:100F7E0003131816831603138C120C120A128A11FD
:100F8E0067270A128A1108000A128A1171270A129B
:100F9E008A110A128A11A5270A128A117630F400D4
:100FAE000A128A1188270A128A11003A0319E02FB1
:100FBE00E12FD52F31307606031DE62FE72FEB2FCD
:100FCE00831203130814D52F30307606031DF02F2D
:100FDE00F12FD52F831203130810D52F0A128A1161
:100FEE000028F001F101F201F30183010A128A11C6
:020FFE00CB2FF7
:04400E00F223FF3F5B
:00000001FF
