:060000000A128A110C280F
:10000800FE00030EF2000A08F3000A128A111D2AE4
:100018000A128A110F2883134230FD000230FE00B5
:100028005D30FF00363084000A128A1140220A121D
:100038008A1183010A128A1121288316031788015D
:1000480089018316031301087F398100870188011C
:10005800FF30860083120313870188018B170B1664
:1000680083160313011383120313B401B5010A3075
:10007800A4000030A5000A30F4000030F50035086F
:10008800F7003408F6000A128A115F210A128A1151
:10009800750883120313A7007408A6000A128A11B0
:1000A800C4210A128A11831203132508AB002408FD
:1000B800AA000A30A4000030A5003508A7003408BB
:1000C800A6000A128A11C4210A128A118312031384
:1000D8002508AD002408AC000A30A4000030A500B3
:1000E8006430F4000030F5003508F7003408F600F5
:1000F8000A128A115F210A128A11750883120313E2
:10010800A7007408A6000A128A11C4210A128A11CB
:10011800831203132508AF002408AE000A30A40098
:100128000030A500E830F4000330F5003508F7008A
:100138003408F6000A128A115F210A128A1175081A
:1001480083120313A7007408A6000A128A11C42197
:100158000A128A11831203132508B1002408B0007B
:10016800B201B301F7308312031387003008363E1B
:100178008400831300088800033083120313A90046
:100188009730A800A80BC628A90BC628FB308312F5
:10019800031387002E08363E840083130008880066
:1001A800033083120313A9009730A800A80BDA289C
:1001B800A90BDA28FD308312031387002A08363E7C
:1001C8008400831300088800033083120313A900F6
:1001D8009730A800A80BEE28A90BEE28FE30831252
:1001E800031387002C08363E840083130008880018
:1001F800033083120313A9009730A800A80B022923
:10020800A90B0229013083120313B2070318B30A9A
:100218000030B3073308803AFF0080307F02031DA7
:10022800172906303202031C1A291B29B628831203
:10023800031340034104031D222923293B291030BD
:10024800A4002730A5003408013EA600350803188D
:10025800013E003EA7000A128A11C4210A128A111F
:10026800831203132508B5002408B4003B28B51BE6
:100278003E293F2957291030A4002730A50034080B
:10028800FF3EA60035080318013EFF3EA7000A12EC
:100298008A11C4210A128A11831203132508B50092
:1002A8002408B4003B280F30B4002730B5003B28A1
:1002B8000A128A110C2883120313A101F51F65295C
:1002C80066296D29F409F509F40A0319F50A0130BC
:1002D800A100F71F702971297829F609F709F60A8C
:1002E8000319F70A0130A106A201A30174087504D5
:1002F80003197F298029B5290130A0008C290130F4
:100308000310F40DF50DFF3E031D84290130A007ED
:10031800F51F8F299029832901300310A20DA30D01
:10032800FF3E031D912975087702031D9D29740856
:100338007602031CA029A129A8297408F6027508C9
:10034800031CF703F702221401300310F50CF40C18
:10035800FF3E031DA9290130A002031DB429B529B8
:10036800902921080319B929BA29BF29A209A30983
:10037800A20A0319A30A2308F5002208F4000800BA
:10038800F90183120313A71FCA29CB29D229A60969
:10039800A709A60A0319A70A0130F900A51FD5293C
:1003A800D629DB29A409A509A40A0319A50A240842
:1003B80025040319E029E1290E2A0130F800ED2966
:1003C80001300310A40DA50DFF3E031DE5290130E2
:1003D800F807A51FF029F129E42925082702031D9C
:1003E800F72924082602031CFA29FB29012A2408D4
:1003F800A6022508031CA703A70201300310A50CB9
:10040800A40CFF3E031D022A0130F802031D0D2A29
:100418000E2AF12979080319122A132A182AA6097B
:10042800A709A60A0319A70A2708A5002608A400F1
:1004380008008B1C202A212A352A8B1383120313C8
:100448004108F1004008F0000A128A114F220A12EE
:100458008A11710883120313C1007008C0008B173A
:100468008B1073088A00720E8300FE0E7E0E090040
:100478007E088A007F0882000A128A113C220A122A
:100488008A118000840A04087D0603190034FF0AD3
:100498000319FE0A402A70037104031D542A552AC1
:1004A800582AF001F1015C2A0130F0000030F10017
:1004B80008003F3406345B344F3466346D347D3481
:0A04C80007347F3467340134003438
:04400E00F22FFF3F4F
:00000001FF
