:060000000A128A11FC2F18
:100F6800831603138801831203138801F201F30126
:100F78006830F100E430F000F00BC02FF10BC02F07
:100F88000000E92F72087304031DCB2FCC2FD62F36
:100F980072088312031388000130F2070318F30A5A
:100FA8000030F3076830F100E430F000F00BDA2F7E
:100FB800F10BDA2F00007208831203138800013046
:100FC800F2070318F30A0030F3077308803AFF00AA
:100FD80080307F02031DF22F40307202031CF52F70
:100FE800F62FC62FF201F301BC2F0A128A1100282E
:080FF80083010A128A11B42FD3
:04400E00F12FFF3F50
:00000001FF
