:060000000A128A11D92F3B
:10000E00F501F11F0B280C281328F009F109F00A4D
:10001E000319F10A0130F500F31F162817281E28C0
:10002E00F209F309F20A0319F30A0130F506F60193
:10003E00F701700871040319252826285B28013062
:10004E00F400322801300310F00DF10DFF3E031DB8
:10005E002A280130F407F11F3528362829280130C7
:10006E000310F60DF70DFF3E031D372871087302BE
:10007E00031D432870087202031C462847284E2889
:10008E007008F2027108031CF303F30276140130B8
:10009E000310F10CF00CFF3E031D4F280130F4024B
:1000AE00031D5A285B283628750803195F28602817
:1000BE006528F609F709F60A0319F70A7708F10019
:1000CE007608F000080083120313BD0131083004D6
:1000DE002F042E04031D74287528BB2830300A12F5
:1000EE008A116E210A128A11EA283D08323E8400D6
:1000FE000030F3000030F2000030F1000A30F00062
:10010E003108F7003008F6002F08F5002E08F4002D
:10011E000A128A11EB200A128A117008303E8313DC
:10012E008000013083120313BD070030A30000309E
:10013E00A2000030A1000A30A0003108A70030084C
:10014E00A6002F08A5002E08A4000A128A119922D3
:10015E000A128A11831203132308B1002208B00079
:10016E002108AF002008AE00B11BCD283108031DB9
:10017E00CE283008031DCE282F08031DCE280130AF
:10018E002E02031DCA28031CCD28CE28E3280A30D0
:10019E00831203133D02031CD528D6287C28E3289E
:1001AE000130BD023D08323E8400831300080A125E
:1001BE008A116E210A128A11831203133D08031D40
:1001CE00E928EA28D7280800FA01F71FEF28F028B7
:1001DE00FD28F409F509F609F709F40A0319F50AD9
:1001EE000319F60A0319F70A0130FA00F31F002962
:1001FE0001290C29F009F109F209F309F00A031992
:10020E00F10A0319F20A0319F30A7308720471044E
:10021E00700403191329142955290130F9002229D4
:10022E000130F8000310F00DF10DF20DF30DF80B87
:10023E0019290130F907F31F2529262917297308D3
:10024E007702031D342972087602031D34297108C2
:10025E007502031D342970087402031C37293829CE
:10026E0046297008F4027108031C710FF50272081A
:10027E00031C720FF6027308031C730FF702013092
:10028E000310F30CF20CF10CF00CFF3E031D47298A
:10029E000130F902031D5429552926297A0803191C
:1002AE0059295A296529F409F509F609F709F40AB5
:1002BE000319F50A0319F60A0319F70A7708F3006A
:1002CE007608F2007508F1007408F0000800FA00D4
:1002DE00831203135A08840083175B1C83130130A7
:1002EE00F8005C080739013E7E290310F80DFF3E29
:1002FE00031D7C29780880047A08F8000430031066
:10030E00F80CFF3E031D862978080F390A128A1150
:10031E0089240A128A11831203135A088400831740
:10032E005B1C83130130F8005C0CF900F90C790C9E
:10033E000739013EA4290310F80DFF3E031DA22923
:10034E00780880041A30F800F80BAB2900008312ED
:10035E0003135A08840083175B1C83130130F800C3
:10036E005C0CF900F90C790C0739013EC029031019
:10037E00F80DFF3E031DBE297808FF3A80057A0866
:10038E000F390A128A1189240A128A118312031351
:10039E005A08840083175B1C83130130F8005C0C31
:1003AE00F900F90C790C0739013EDF290310F80D1D
:1003BE00FF3E031DDD29780880041A30F800F80B83
:1003CE00E6290000831203135A08840083175B1C6E
:1003DE0083130130F8005C0CF900F90C790C073925
:1003EE00013EFB290310F80DFF3E031DF929780885
:1003FE00FF3A8005080083120313C11F072A082A3B
:10040E001B2A2D300A128A116E210A128A118312AA
:10041E000313BE09BF09C009C109BE0A0319BF0AE9
:10042E000319C00A0319C10A0030A3000030A2004C
:10043E000030A1006430A0004108A7004008A600CB
:10044E003F08A5003E08A4000A128A1199220A123A
:10045E008A11831203132308C7002208C60021083D
:10046E00C5002008C4000030F3000030F200003058
:10047E00F1006430F0004108F7004008F6003F0834
:10048E00F5003E08F4000A128A11EB200A128A11B6
:10049E00700883120313C8004708B1004608B00065
:1004AE004508AF004408AE000A128A116A200A12EB
:1004BE008A112E300A128A116E210A128A110A30FE
:1004CE00F0000030F100831203134808C200C3018C
:1004DE004208F2004308F3000A128A1107200A129A
:1004EE008A117008303E0A128A116E210A128A1180
:1004FE000A30F0000030F100831203134808C200E6
:10050E00C3014208F2004308F3000A128A15A92714
:10051E000A128A117008303E0A128A116E210A12CE
:10052E008A11080083120313A901A31F9F2AA02A70
:10053E00AD2AA009A109A209A309A00A0319A10ABB
:10054E000319A20A0319A30A0130A900A71FB02A92
:10055E00B12ABE2AA409A509A609A709A40A031946
:10056E00A50A0319A60A0319A70A0130A906003025
:10057E00AD000030AC000030AB000030AA00230804
:10058E002204210420040319CD2ACE2A192B01306E
:10059E00A800DC2A0130FD000310A00DA10DA20D54
:1005AE00A30DFD0BD32A0130A807A31FDF2AE02AD3
:1005BE00D12A0130FD000310AA0DAB0DAC0DAD0D0F
:1005CE00FD0BE22A23082702031DF72A2208260222
:1005DE00031DF72A21082502031DF72A20082402ED
:1005EE00031CFA2AFB2A0A2B2008A4022108031C4A
:1005FE00210FA5022208031C220FA6022308031CAA
:10060E00230FA7022A1401300310A30CA20CA10C75
:10061E00A00CFF3E031D0B2B0130A802031D182B4F
:10062E00192BE02A290803191D2B1E2B292BAA0989
:10063E00AB09AC09AD09AA0A0319AB0A0319AC0A36
:10064E000319AD0A2D08A3002C08A2002B08A10047
:10065E002A08A0000800F30104307302031C382B93
:10066E00392B3A2BD62B0130F000730A402B031096
:10067E00F00DFF3E031D3E2B7008FF3A0F39F03888
:10068E008312031386002130F000F00B4C2B8312E3
:10069E0003130608F00004300310F00CFF3E031D98
:1006AE00532B7008F2000F30F205F4010130F00008
:1006BE00740A632B0310F00DFF3E031D612B7008AF
:1006CE007205031D6B2B6C2BCB2B3430F100F130EC
:1006DE00F000F00B702BF10B702B752B83120313A4
:1006EE000608F00004300310F00CFF3E031D7A2BB9
:1006FE007008F2000F30F2050130F000740A892BF9
:10070E000310F00DFF3E031D872B70087205031DAD
:10071E00912B922BCB2B0130F000740A982B0310E7
:10072E00F00DFF3E031D962B0608F100043003105A
:10073E00F10CFF3E031D9E2B710870050F39031936
:10074E00A92BAA2B922B3430F100F130F000F00BD4
:10075E00AE2BF10BAE2BB32BFF308312031386009F
:10076E007308F00002300310F00DFF3E031DBA2B8C
:10077E0001307007F1007408710784000A128A159F
:10078E0000200A128A11DB2B0130F40704307402A8
:10079E00031CD22BD32B5D2B0130F307332BFF30F1
:1007AE00831203138600003008005A308400760846
:1007BE0083138000840A77088000840A78088000FA
:1007CE00840A79088000840A7A0880000030831237
:1007DE0003135B06031DF52B05305A06031DF82B7C
:1007EE00F92BFD2B831603138501182C00305B06A5
:1007FE00031D032C06305A06031D062C072C0B2C4A
:10080E00831603138601182C00305B06031D112C72
:10081E0007305A06031D142C152C882C831603132F
:10082E0087013430FC00F130FB00FB0B1C2CFC0B61
:10083E001C2C212C03300A128A1554270A128A11F5
:10084E000D30FC00FB30FB00FB0B2B2CFC0B2B2C80
:10085E00302C03300A128A1554270A128A112A30B4
:10086E00FC008D30FB00FB0B3A2CFC0B3A2C3F2C82
:10087E0003300A128A1554270A128A1102300A12FC
:10088E008A1554270A128A1102300A128A15542721
:10089E000A128A1108300A128A1554270A128A116E
:1008AE0000300A128A1554270A128A1106300A12CB
:1008BE008A1554270A128A110830FD007D157D080D
:1008CE00FB0004300310FB0CFF3E031D692C7B085C
:1008DE000F390A128A1554270A128A117D080F3908
:1008EE000A128A1554270A128A1100300A128A1522
:1008FE0054270A128A1101300A128A1554270A1235
:10090E008A110800F200721C8D2C8E2CA32C8312DF
:10091E0003135A08840083175B1C83130130F00005
:10092E005D080739013E9D2C0310F00DFF3E031D9F
:10093E009B2C70088004B82C831203135A08840071
:10094E0083175B1C83130130F0005D080739013EED
:10095E00B22C0310F00DFF3E031DB02C7008FF3AB1
:10096E008005F21CBB2CBC2CD22C5A088400831799
:10097E005B1C83130130F0005D0CF100F10C710C67
:10098E000739013ECC2C0310F00DFF3E031DCA2C7F
:10099E0070088004E82C5A08840083175B1C8313AC
:1009AE000130F0005D0CF100F10C710C0739013EC5
:1009BE00E22C0310F00DFF3E031DE02C7008FF3AF1
:1009CE008005721DEB2CEC2CFF2C5A08840083172B
:1009DE005B1C83130130F0005E080739013EF92CD1
:1009EE000310F00DFF3E031DF72C70088004122D2E
:1009FE005A08840083175B1C83130130F0005E08D5
:100A0E000739013E0C2D0310F00DFF3E031D0A2D7C
:100A1E007008FF3A8005F21D152D162D2C2D5A0843
:100A2E00840083175B1C83130130F0005E0CF10011
:100A3E00F10C710C0739013E262D0310F00DFF3E0F
:100A4E00031D242D70088004422D5A08840083173C
:100A5E005B1C83130130F0005E0CF100F10C710C85
:100A6E000739013E3C2D0310F00DFF3E031D3A2DBC
:100A7E007008FF3A800508008312031333088400C0
:100A8E00013083138000612E3008B4003108B500A8
:100A9E000030B51BFF30B600B7002E08B8002F0887
:100AAE00B9000030B91BFF30BA00BB003808B407DC
:100ABE0039080318390F642D652DB5073A08031848
:100ACE003A0F6A2D6B2DB6073B0803183B0AB70782
:100ADE003708F3003608F2003508F1003408F0004C
:100AEE000030F7000030F6000030F5006430F400FE
:100AFE000A128A150E270A128A117308831203131B
:100B0E00B1007208B0007108AF007008AE006F2E11
:100B1E003008B4003108B5000030B51BFF30B60008
:100B2E00B7002E08B8002F08B9000030B91BFF30EF
:100B3E00BA00BB003408B8023508031C350FA82DC7
:100B4E00A92DB9023608031C360FAE2DAF2DBA02F1
:100B5E003708031C370FB42DB52DBB023B08F3002D
:100B6E003A08F2003908F1003808F0000030F700BA
:100B7E000030F6000030F5006430F4000A128A15D9
:100B8E000E270A128A11730883120313B10072081A
:100B9E00B0007108AF007008AE006F2E2E08F00086
:100BAE002F08F1000030F11BFF30F200F300300887
:100BBE00F4003108F5000030F51BFF30F600F700A9
:100BCE000A128A150E270A128A117308831203134A
:100BDE00BF007208BE007108BD007008BC003F085F
:100BEE00F3003E08F2003D08F1003C08F000003032
:100BFE00F7000030F6000030F5006430F4000A1201
:100C0E008A150E270A128A11730883120313B10074
:100C1E007208B0007108AF007008AE006F2E300879
:100C2E003104031D1B2E1C2E282E33088400800138
:100C3E000030B1000030B0000030AF000030AE0028
:100C4E006F2E3008A0003108A1000030A11BFF302C
:100C5E00A200A3002E08F0002F08F1000030F11BB7
:100C6E00FF30F200F3000030F7000030F6000030E5
:100C7E00F5006430F4000A128A150E270A128A1142
:100C8E00730883120313A7007208A6007108A5004B
:100C9E007008A4000A128A1199220A128A1183126C
:100CAE0003132308B1002208B0002108AF0020086A
:100CBE00AE006F2E32082A3A0319D52D013A0319C8
:100CCE004B2D063A03198F2D023A0319162E1C2EA0
:100CDE000800FF3083120313D700FF30D800FF3017
:100CEE00D400FF30D500D6010A128A1583260A12C7
:100CFE008A1149308400831203135F088313800026
:100D0E00840A60088000840A61088000840A6208F0
:100D1E008000840A630880007630840049088000D1
:100D2E00840A4A088000840A4B088000840A4C0812
:100D3E008000840A4D0880000A128A11DC230A12F0
:100D4E008A1100300A128A1554270A128A110130AC
:100D5E000A128A1554270A128A110A128A1132238C
:100D6E000A128A1183120313D9005908031DC02ECB
:100D7E00C12EC22EB42E43305906031DC72EC82EC7
:100D8E00DE2EFF30D700FF30D800FF30D400FF300A
:100D9E00D500D60100300A128A1554270A128A117C
:100DAE0001300A128A1554270A128A11B42E5908D4
:100DBE000A128A1595260A128A11003A0319E82E8C
:100DCE00E92E3D2F831203135908D03ED200560848
:100DDE00031DF22EF32E152F570A031DFA2E580A55
:100DEE00031DFA2EFB2EFD2ED701D8015808F10057
:100DFE005708F0000A30F2000030F3000A128A158C
:100E0E00E9260A128A118312031352087007D700BB
:100E1E000030031801307107D800362F540A031D15
:100E2E001C2F550A031D1C2F1D2F1F2FD401D5015A
:100E3E005508F1005408F0000A30F2000030F300BB
:100E4E000A128A15E9260A128A118312031352080E
:100E5E007007D4000030031801307107D50059080F
:100E6E000A128A116E210A128A11B42E83120313EA
:100E7E0059080A128A15A7260A128A11003A03196E
:100E8E00492F4A2F622F83120313570A031D542F23
:100E9E00580A0319532F542FB42E5608031D582FDA
:100EAE00592FB42E5908D60059080A128A116E21EC
:100EBE000A128A11B42E3D30831203135906031DF4
:100ECE00692F6A2FB42E570A031D722F580A031961
:100EDE00712F722FB42E540A031D7A2F550A03193F
:100EEE00792F7A2FB42E560803197E2F7F2FB42E0A
:100EFE003D300A128A116E210A128A1183120313CF
:100F0E005808AF005708AE005508B1005408B0009D
:100F1E005608B2005330B3000A128A1143250A1242
:100F2E008A11831203133108D1003008D0002F0824
:100F3E00CF002E08CE0000300A128A1554270A124E
:100F4E008A1101300A128A1554270A128A11831245
:100F5E00031353080319B42FB52FC32F5108C10023
:100F6E005008C0004F08BF004E08BE000A128A117A
:100F7E0002220A128A11CA2F1130FB000A128A1598
:100F8E00C5260A128A11FF3083120313D700FF30D1
:100F9E00D800FF30D400FF30D500D601B42E0A128F
:100FAE008A1100280A128A157E260A128A11DF007B
:100FBE000A128A157F260A128A11E0000A128A1571
:100FCE0080260A128A11E1000A128A1581260A1257
:100FDE008A11E2000A128A1582260A128A11E30089
:100FEE00DA01DB01DC01DD01DE0183010A128A1167
:100FFE00702E08308A000408840A820700343134C7
:10100E00323433342F343434353436342A3437349E
:10101E00383439342D34433430343D342B34453464
:10102E00723472346F3472342034643469347634EA
:06103E00203430340034C0
:101CFC00073400341A342C343E348316031788010D
:101D0C008901F030831603138600FF30831203130E
:101D1C008600831603138113F03095000800F10040
:101D2C00F00130307102031C9C2E9D2EA52E3A30F2
:101D3C0071020318A22EA32EA52E0130F0007008FC
:101D4C000800F1000130F0002B3071060319AF2EA2
:101D5C00B02EC32E2D3071060319B52EB62EC32E00
:101D6C002A3071060319BB2EBC2EC32E2F307106E0
:101D7C000319C12EC22EC32EF00170080800FC01FD
:101D8C00FD01DB2E7C087B0784000A128A150020DB
:101D9C000A128A150A128A116E210A128A1501304A
:101DAC00FC070318FD0A0030FD077C087B07840044
:101DBC000A128A1500200A128A15003A031DE72E12
:101DCC00E82EC82E0800F401F501701CEE2EEF2E43
:101DDC00F52E7208F4070318F50A7308F50701309D
:101DEC000310F20DF30DFF3E031DF62E0130031010
:101DFC00F10CF00CFF3E031DFD2E70087104031D49
:101E0C00082F092FEB2E7508F1007408F00008005C
:101E1C000030FC000030FB000030FA000030F9000C
:101E2C00701C192F1A2F312F7408F907750803111C
:101E3C000318013E0319232FFA0776080311031820
:101E4C00013E03192A2FFB07770803110318013EE3
:101E5C000319312FFC070130F8000310F40DF50DB8
:101E6C00F60DF70DF80B332F01300310F30CF20CB9
:101E7C00F10CF00CFF3E031D3B2F73087204710430
:101E8C007004031D4A2F4B2F162F7C08F3007B0880
:101E9C00F2007A08F1007908F0000800F5008312CE
:101EAC0003135A08840083175B1C83130130F3005F
:101EBC005C080739013E642F0310F30DFF3E031D30
:101ECC00622F7308FF3A800575080A128A1189245B
:101EDC000A128A15831203135A08840083175B1C99
:101EEC0083130130F3005C0CF400F40C740C073910
:101EFC00013E822F0310F30DFF3E031D802F73084C
:101F0C0080040B30F4006230F300F30B8B2FF40BD6
:101F1C008B2F0000831203135A08840083175B1C59
:101F2C0083130130F3005C0CF400F40C740C0739CF
:101F3C00013EA22F0310F30DFF3E031DA02F7308CB
:101F4C00FF3A80050800F501F31FAD2FAE2FB52F1A
:101F5C00F209F309F20A0319F30A0130F500F11F33
:101F6C00B82FB92FBE2FF009F109F00A0319F10AA5
:101F7C00700871040319C32FC42FF12F0130F40022
:101F8C00D02F01300310F00DF10DFF3E031DC82FB3
:101F9C000130F407F11FD32FD42FC72F7108730210
:101FAC00031DDA2F70087202031CDD2FDE2FE42FC5
:101FBC007008F2027108031CF303F30201300310E2
:101FCC00F10CF00CFF3E031DE52F0130F402031D54
:101FDC00F02FF12FD42F75080319F52FF62FFB2FA7
:101FEC00F209F309F20A0319F30A7308F1007208F3
:041FFC00F0000800E9
:04400E00F22FFF3F4F
:00000001FF
