:060000000A128A110C280F
:10000800FE00030EF8000A08F9000A128A157B2D73
:100018000A128A110F288313F030FD000C30FE00FD
:10002800E630FF00E93084000A128A1526250A12F4
:100038008A11C8308400E9300A128A15ED240A12A0
:100048008A11EB01EC01ED01EE01EF01F001F10184
:10005800F201F301F40183010A128A11682C831654
:100068000313BD0008300A128A1552270A128A1192
:100078000A300A128A1552270A128A1183160313A4
:100088003D08031D4828492855284E30831203137C
:10009800A6008030A7000A128A1571260A128A1152
:1000A8006028553083120313A6008030A7000A1277
:1000B8008A1571260A128A117630831203136A068A
:1000C800031D67286828542908300A128A15522700
:1000D8000A128A1100300A128A1552270A128A1146
:1000E800443083120313A6008030A7000A128A1531
:1000F80071260A128A110C300A128A1552270A121E
:100108008A1100300A128A1552270A128A11831698
:1001180003133D080A128A11CB270A128A11831287
:100128000313210883160313B00083120313200856
:1001380083160313AF00003083120313B00000309E
:10014800AF000330AE00FF30AD00831603132F0855
:1001580083120313A00083160313300883120313BA
:10016800A100A201A3010030A7000030A600C330FF
:10017800A5005030A4000A128A15B7260A128A115F
:10018800831203132308B4002208B3002108B20025
:100198002008B1000A128A11B1250A128A118312A5
:1001A80003132E0883160313BC00831203132D08B0
:1001B80083160313BB00103083120313A6002730E5
:1001C800A700831603133C0883120313A9008316A0
:1001D80003133B0883120313A8000A128A152D265D
:1001E8000A128A1183120313270883160313B20015
:1001F80083120313260883160313B10010308312E9
:100208000313A0002730A100831603133C088312B0
:100218000313A300831603133B0883120313A200DE
:100228000A128A15F3250A128A1183120313210868
:1002380083160313B40083120313200883160313D1
:10024800B300A03083120313D7000130D8008316FF
:100258000313320883120313DA00831603133108D9
:1002680083120313D900831603133408831203136C
:10027800DC0083160313330883120313DB000A120E
:100288008A1558250A128A11A03083120313A60072
:100298000030A7000A128A1571260A128A112A2A22
:1002A80070306A06031D59295A29DB2908300A12B9
:1002B8008A1552270A128A1100300A128A15522703
:1002C8000A128A112B3083120313A6008030A7006C
:1002D8000A128A1571260A128A110C300A128A1516
:1002E80052270A128A1100300A128A1552270A1256
:1002F8008A11831603133D080A128A11CB270A12A2
:100308008A1183120313210883160313B60083127C
:100318000313200883160313B500FF308312031359
:10032800A6000330A70083160313360883120313AD
:10033800A10083160313350883120313A000643049
:10034800A2000030A3000A128A15A1250A128A11F8
:10035800831203132108A9002008A8000A128A158D
:100368002D260A128A1183120313270883160313F2
:10037800B80083120313260883160313B700A030AE
:1003880083120313D7001030D800831603133808DC
:1003980083120313DA008316031337088312031337
:1003A800D9000A128A1558250A128A1148290830D4
:1003B8000A128A1552270A128A1100300A128A155F
:1003C80052270A128A11383083120313A60080308C
:1003D800A7000A128A1571260A128A110C300A120D
:1003E8008A1552270A128A1100300A128A155227D2
:1003F8000A128A11831603133D080A128A11CB27A1
:100408000A128A1183120313210883160313BA00F0
:1004180083120313200883160313B900A030831234
:100428000313D7001E30D800831603133A0883122B
:100438000313DA0083160313390883120313D90050
:100448000A128A1558250A128A11482908008312A7
:100458000313480884008313000884000A128A11D1
:100468006A270A128A11253A031D3B2A3C2AE32AE5
:100478004808840001308007EB01EC010030EF00F0
:10048800FF30ED00FF30EE00D001602AEF1448087D
:10049800840001308007602A0130D000602A4808B3
:1004A8008400000884000A128A116A270A128A1135
:1004B800303A03194A2A502A50080319642A652A2F
:1004C800532A4808A6004908A7000A128A15A9272E
:1004D8000A128A11831203132708EC002608EB007E
:1004E800EC1F772A782A7E2A6F14EB09EC09EB0AAD
:1004F8000319EC0A4808840083130008D100510846
:1005080084000A128A116A270A128A11753A031D91
:100518008E2A8F2ABB2A490884000008CA000230A4
:1005280080074A0884000008CC00840A0008CD002F
:10053800480884005108013E8000B02A4608BD00E2
:100548004708BE004D08C0004C08BF000A128A11B7
:10055800E2260A128A11FC2A510884000A128A111A
:100568006A270A128A11753A0319A22ABB2A48086F
:100578008400000884000A128A116A270A128A1164
:10058800253A031DC82AC92ADB2A480884000130F5
:1005980080072530A0000030A1004608A2004708C7
:1005A800A3000A128A1111250A128A11FC2A831241
:1005B800031348088400013083138007FC2A480885
:1005C8008400000884000A128A116A270A128A1114
:1005D800CA00CB014A08A0004B08A1004608A200A7
:1005E8004708A3000A128A1111250A128A11DB2A68
:1005F800080083120313A200221C032B042B172BC1
:10060800700884008317711C83130130A0007308DD
:100618000739013E112B0310A00DFF3E031D0F2BC0
:10062800200880042A2B700884008317711C831308
:100638000130A00073080739013E242B0310A00DD8
:10064800FF3E031D222B2008FF3A8005A21C2D2BFC
:100658002E2B442B700884008317711C83130130E0
:10066800A000730CA100A10C210C0739013E3E2B00
:100678000310A00DFF3E031D3C2B200880045A2BBD
:10068800700884008317711C83130130A000730C59
:10069800A100A10C210C0739013E542B0310A00D19
:1006A800FF3E031D522B2008FF3A8005221D5D2BBB
:1006B8005E2B712B700884008317711C8313013023
:1006C800A00074080739013E6B2B0310A00DFF3EF4
:1006D800031D692B20088004842B7008840083176D
:1006E800711C83130130A00074080739013E7E2B6A
:1006F8000310A00DFF3E031D7C2B2008FF3A800548
:10070800A21D872B882B9E2B700884008317711CD1
:1007180083130130A000740CA100A10C210C07392F
:10072800013E982B0310A00DFF3E031D962B2008B9
:100738008004B42B700884008317711C8313013064
:10074800A000740CA100A10C210C0739013EAE2BAE
:100758000310A00DFF3E031DAC2B2008FF3A8005B7
:100768000800703084008312031326088000840A6E
:1007780027088000840A28088000840A2908800045
:10078800840A2A08800000307106031DCD2B05302D
:100798007006031DD02BD12BD52B8316031385018F
:1007A800F02B00307106031DDB2B06307006031D8D
:1007B800DE2BDF2BE32B831603138601F02B00308F
:1007C8007106031DE92B07307006031DEC2BED2B7A
:1007D800672C831603138701343083120313AC008C
:1007E800F130AB00AB0BF62BAC0BF62B03300A1237
:1007F8008A1552270A128A110D3083120313AC008E
:10080800FB30AB00AB0B062CAC0B062C03300A12EA
:100818008A1552270A128A112A3083120313AC0050
:100828008D30AB00AB0B162CAC0B162C03300A1218
:100838008A1552270A128A1102300A128A1552277B
:100848000A128A1102300A128A1552270A128A11CC
:1008580008300A128A1552270A128A1100300A1221
:100868008A1552270A128A1106300A128A15522747
:100878000A128A11083083120313AD002D152D08B2
:10088800AB0004300310AB0CFF3E031D462C2B08B5
:100898000F390A128A1552270A128A118312031372
:1008A8002D080F390A128A1552270A128A110030A8
:1008B8000A128A1552270A128A1101300A128A1559
:1008C80052270A128A11080083160313C601C701AA
:1008D8000A128A1501250A128A118130831203131C
:1008E8009F00FF30831603138600870101087F39B4
:1008F80081008B178B100B160113C1308400690817
:1009080083138000840A6A088000840A6B088000C8
:10091800840A6C088000840A6D08800026308400F0
:1009280041088000840A42088000840A4308800045
:10093800840A44088000840A450880000A128A1143
:10094800B5230A128A11831203138618AC2CAD2C16
:10095800CD2C343083160313BF00F130BE00BE0B1C
:10096800B32CBF0BB32C831203138618BC2CBD2CDD
:10097800CD2C8316031348080A128A15F5240A1287
:100988008A1183160313C8008312861CCC2CCD2C25
:10099800C82C831603136E084606031DD42CD52CC9
:1009A800DB2C480847060319DA2CDB2CEF2C003027
:1009B8000A128A1552270A128A1101300A128A1558
:1009C80052270A128A11831603136E08C6004808B4
:1009D800C7000130EF006E0883120313EA00831684
:1009E800031348080A128A1133200A128A1183163F
:1009F8000313EF01023083160313C0008630BF00D3
:100A08009830BE00BE0B062DBF0B062DC00B062D61
:100A18000000A72C0A128A110C288312031322083B
:100A280023040319182D192D1F2D22082304031D33
:100A38001E2D1F2D262D20080A128A11FF270A12A3
:100A48008A11B02D2208093EA40023080318013E8C
:100A5800003EA500240884008317251C8313000882
:100A6800A600840A0008A7002608270403193D2DBC
:100A78003E2D702D2208093EA40023080318013ECC
:100A8800003EA500240884008317251C8313000852
:100A9800A600840A0008A7002208023EA80023082E
:100AA8000318013E003EA900280884008317291C6A
:100AB80083130008AA00840A0008AB002B08803AB8
:100AC800AC002708803A2C02031D6C2D26082A0248
:100AD80003186F2D702DB02D831203132208840084
:100AE8008317231C83130008A400840A0008A500A8
:100AF8002208023EA60023080318013E003EA70074
:100B0800260884008317271C831300082407A900DC
:100B18002508A8000318A80A801F932DA80383128C
:100B280003132808AA002908840083172A1C8313A2
:100B3800200880002208023EA40023080318013E72
:100B4800003EA500240884008317251C8313013068
:100B58008007840A0318800A080083120313B70168
:100B6800B01FB72DB82DC52DAD09AE09AF09B00915
:100B7800AD0A0319AE0A0319AF0A0319B00A013006
:100B8800B700B41FC82DC92DD62DB109B209B309B4
:100B9800B409B10A0319B20A0319B30A0319B40A4A
:100BA8000130B7060030BB000030BA000030B90091
:100BB8000030B80030082F042E042D040319E52D49
:100BC800E62D312E0130B600F42D0130B5000310AA
:100BD800AD0DAE0DAF0DB00DB50BEB2D0130B60759
:100BE800B01FF72DF82DE92D0130B5000310B80D11
:100BF800B90DBA0DBB0DB50BFA2D30083402031D23
:100C08000F2E2F083302031D0F2E2E083202031D4C
:100C18000F2E2D083102031C122E132E222E2D0802
:100C2800B1022E08031C2E0FB2022F08031C2F0F2F
:100C3800B3023008031C300FB4023814013003101B
:100C4800B00CAF0CAE0CAD0CFF3E031D232E0130D3
:100C5800B602031D302E312EF82D37080319352E14
:100C6800362E412EB809B909BA09BB09B80A0319C1
:100C7800B90A0319BA0A0319BB0A3B08B0003A08B3
:100C8800AF003908AE003808AD000800831203131E
:100C9800A500700884008317711C83130130A3001A
:100CA80072080739013E5A2E0310A30DFF3E031D9B
:100CB800582E230880042508A30004300310A30C31
:100CC800FF3E031D622E23080F390A128A11FD22E6
:100CD8000A128A11700884008317711C831301306B
:100CE80083120313A300720CA400A40C240C07396C
:100CF800013E802E0310A30DFF3E031D7E2E230808
:100D08008004193083120313A300A30B892E8C2EA1
:100D1800700884008317711C831301308312031336
:100D2800A300720CA400A40C240C0739013E9E2ECB
:100D38000310A30DFF3E031D9C2E2308FF3A8005D8
:100D480025080F390A128A11FD220A128A11700821
:100D580084008317711C8313013083120313A300CB
:100D6800720CA400A40C240C0739013EBD2E0310FC
:100D7800A30DFF3E031DBB2E2308800419308312E8
:100D88000313A300A30BC62EC92E70088400831773
:100D9800711C8313013083120313A300720CA40087
:100DA800A40C240C0739013EDB2E0310A30DFF3ED3
:100DB800031DD92E2308FF3A80050800013083124D
:100DC8000313C1006C08C3006B08C2001F30C400C5
:100DD8000030C50083160313E801282FFF30C4072D
:100DE8000318C50AFF30C5074408C93E84000A3005
:100DF800A0000030A1004008A3003F08A2000A128A
:100E08008A15F3250A128A11831203132008303E2B
:100E180083138000C101FF30C2070318C30AFF30E3
:100E2800C3070A30A6000030A7004008A9003F0801
:100E3800A8000A128A152D260A128A118312031392
:100E48002708C0002608BF00831244084504031978
:100E58002E2F2F2F4D2F3F084004031D342F352FE1
:100E6800F22E4108031D392F3A2FF22E4308803AFB
:100E7800FF0080307F02031D432F01304202031C14
:100E8800462F472F4D2F83120313EF184C2F4D2F4A
:100E9800F22E831203133D08B5003E08B60044083D
:100EA800C93EB7004308B9004208B8000A128A15BB
:100EB800FF260A128A110800FF1B6A2F83137F1866
:100EC80083170008840A0319FF0A080007308A00FC
:100ED8000408840A82070034253475342E342534F6
:100EE80030343434753420345634203420342034AB
:100EF8002034203400342534753420342534253406
:100F08002034203420342034203420342034203439
:100F180000342534753420342034203420342034EF
:100F280020342034203420342034003450346F34BA
:100F38007234633465346E34743461346A346534BD
:100F48003A34203400344134443443343A3420347D
:100F580020342034203420342034203400345634D3
:100F68006F346C34743461346A3465343A34203400
:100F780000342034283449344E3431342934003490
:100F88002034283449344E3432342934003483121E
:100F98000313A400023083120313A200A20BD22F62
:100FA8000000C330831203139F052408A2000130F8
:100FB8000310A20DFF3E031DDC2F0310220D9F041A
:100FC800063083120313A3002F30A200A20BEA2FCE
:100FD800A30BEA2FEF2F831203139F149F18F52FEB
:100FE800F62FF22F1E08A100831603131E08831282
:080FF8000313A000080008002B
:1019CC00073400341A342C343E3476340134640039
:1019DC008001840A0406031900340406EE2C8312D9
:1019EC000313A0002008031DFC2CFD2CFF2C013040
:1019FC00002D00300800033083160317880089017E
:101A0C008030831603139F000130831203139F0051
:101A1C000800F50076307506031D152D162D182DB2
:101A2C007030212D70307506031D1D2D1E2D202D9F
:101A3C006130212D763008007E088A007F088200F4
:101A4C000A128A1522250A128A158000840A0408B3
:101A5C007D0603190034FF0A0319FE0A262D831292
:101A6C0003135408D600472D5208C6005308C7006C
:101A7C005630C8005508C9000A128A112B220A12C6
:101A8C008A1583120313560884000A128A116A27D6
:101A9C000A128A15003A031D542D552D3A2DD201E8
:101AAC00D3010800593083120313DE005708DF00FE
:101ABC000030E000E101E201E801E9015F30D20011
:101ACC000030D3005808D4005E30D5000A128A15B5
:101ADC0035250A128A158312031361085707DD0096
:101AEC005D0884008313800108008B1C7E2D7F2DE4
:101AFC009A2D3430F700F130F600F60B832DF70BEE
:101B0C00832D882D8312031306188D2D8E2D992D60
:101B1C00831603136E080A128A150F250A128A15EA
:101B2C0083160313EE008B1079088A00780E83005D
:101B3C00FE0E7E0E090083120313A401A501201CC6
:101B4C00A82DA92DAF2D2208A4070318A50A230838
:101B5C00A50701300310A20DA30DFF3E031DB02DF0
:101B6C0001300310A10CA00CFF3E031DB72D200863
:101B7C002104031DC22DC32DA52D2508A100240869
:101B8C00A000080083120313B301B401E52D320841
:101B9C00B000B1013008A0003108A1002E08A2004D
:101BAC002F08A3000A128A1111250A128A15013076
:101BBC0083120313B3070318B40A0030B4073308B5
:101BCC002D07B0003008840083130008B2003208DF
:101BDC00031DF12DF22DCD2D0800831203132008C7
:101BEC0021040319FA2DFB2D282E0130A400072EF9
:101BFC0001300310A00DA10DFF3E031DFF2D013080
:101C0C00A407A11F0A2E0B2EFE2D21082302031D53
:101C1C00112E20082202031C142E152E1B2E200818
:101C2C00A2022108031CA303A30201300310A10C80
:101C3C00A00CFF3E031D1C2E0130A402031D272EF9
:101C4C00282E0B2E2308A1002208A00008008312C6
:101C5C000313AA01AB01260827040319362E372ECD
:101C6C006C2E0130AC00432E01300310A60DA70DD5
:101C7C00FF3E031D3B2E0130AC07A71F462E472EFF
:101C8C003A2E01300310AA0DAB0DFF3E031D482E5A
:101C9C0027082902031D542E26082802031C572E40
:101CAC00582E5F2E2608A8022708031CA903A90298
:101CBC002A1401300310A70CA60CFF3E031D602E46
:101CCC000130AC02031D6B2E6C2E472E2B08A70087
:101CDC002A08A600080083120313AB01AC019A2E4C
:101CEC002B082607A9002708A8000318A80AAB1F71
:101CFC00802EA803831203132808AA002A08FF00C9
:101D0C00290884000A128A1160270A128A150A12FD
:101D1C008A114A260A128A15013083120313AB0763
:101D2C000318AC0A0030AC072B082607A9002708BB
:101D3C00A8000318A80AAB1FA42EA8038312031330
:101D4C002808AA002A08FF00290884000A128A1110
:101D5C0060270A128A15003A031DB52EB62E762E70
:101D6C000800003083120313AC000030AB000030CD
:101D7C00AA000030A900201CC42EC52EDC2E24087D
:101D8C00A907250803110318013E0319CE2EAA0733
:101D9C00260803110318013E0319D52EAB0727089B
:101DAC0003110318013E0319DC2EAC070130A80007
:101DBC000310A40DA50DA60DA70DA80BDE2E01304A
:101DCC000310A30CA20CA10CA00CFF3E031DE62ECD
:101DDC002308220421042004031DF52EF62EC12E07
:101DEC002C08A3002B08A2002A08A1002908A00097
:101DFC000800831203136F1C042F052F102F3708B4
:101E0C00AD003508AE003608AF000A128A15C82599
:101E1C000A128A1583120313B91F152F162F182FA8
:101E2C00B801B901BB01BC01322F2030831203135E
:101E3C00A0000030A1003508A2003608A3000A1249
:101E4C008A1111250A128A15013083120313BB075C
:101E5C000318BC0A0030BC073C08803ABA003908A9
:101E6C00803A3A02031D3C2F38083B02031C3F2FDB
:101E7C00402F1B2F831203136F18452F462F512F02
:101E8C003708AD003508AE003608AF000A128A15C7
:101E9C00C8250A128A15080083120313A5007008BE
:101EAC0084008317711C83130130A3007208073957
:101EBC00013E622F0310A30DFF3E031D602F23086C
:101ECC00FF3A800525080A128A11FD220A128A158A
:101EDC00700884008317711C831301308312031361
:101EEC00A300720CA400A40C240C0739013E802F13
:101EFC000310A30DFF3E031D7E2F230880040B301F
:101F0C0083120313A4006130A300A30B8B2FA40B2B
:101F1C008B2F902F700884008317711C8313013052
:101F2C0083120313A300720CA400A40C240C073915
:101F3C00013EA22F0310A30DFF3E031DA02F23086B
:101F4C00FF3A8005080083120313AA01AB0126088F
:101F5C0084008313000884000A128A116A270A126B
:101F6C008A152A3A031DBB2FBC2FEA2F26088400A2
:101F7C0001308007270884000008A8000230800781
:101F8C00280884000008AA00840A0008AB00FB2F74
:101F9C002B08A1002A08A0000A30A2000030A300E0
:101FAC000A128A15A1250A128A158312031329080D
:101FBC002007AA000030031801302107AB002608C7
:101FCC0084000130831380072608840000088400F5
:101FDC000A128A116A270A128A15D03EA9000A3001
:101FEC002902031CFA2FFB2FCE2F2B08A7002A083F
:041FFC00A600080033
:04400E00F22FFF3F4F
:00000001FF
