:060000000A128A110C280F
:10000800FE00030EF0000A08F1000A128A113E2AC7
:100018000A128A110F2883120313B701B80183014A
:100028000A128A11172883120313B501B6010A129E
:100038008A11A5210A128A11831203133808031999
:10004800262827285C28683083120313B200E3307F
:10005800B100B10B2D28B20B2D28322883120313BF
:100068000618372838285728370803193C283E2807
:1000780001303F280030B70037080A128A11F021F2
:100088000A128A1183120313061C4B284C2846288F
:10009800683083120313B200E330B100B10B522869
:1000A800B20B5228572883120313B8018B100B1672
:1000B80000300A128A11CC210A128A11730883129D
:1000C8000313B4007208B3000030A7000030A60084
:1000D8000330A500FF30A4003308F2003408F30011
:1000E800F401F5010030F9000030F8000330F700A2
:1000F800E830F6000A128A112F210A128A117508AF
:1001080083120313AB007408AA007308A9007208CD
:10011800A8000A128A11C9200A128A11831203132D
:100128002508B6002408B50000303402143003193D
:1001380033020318A028A128A428B501B601B128C4
:1001480000303602FA30031935020318AC28AD28FE
:10015800B128FA30B5000030B6003608F30035088B
:10016800F2000A128A117B210A128A111A308312AC
:100178000313B200F730B100B10BC028B20BC0288E
:10018800C52820280A128A110C280030831203136C
:10019800AF000030AE000030AD000030AC002708E2
:1001A8002604250424040319DA28DB28262901302B
:1001B800B000E9280130FB000310A40DA50DA60D21
:1001C800A70DFB0BE0280130B007A71FEC28ED288E
:1001D800DE280130FB000310AC0DAD0DAE0DAF0DE8
:1001E800FB0BEF2827082B02031D042926082A02E7
:1001F800031D042925082902031D042924082802AF
:10020800031C0729082917292408A8022508031C04
:10021800250FA9022608031C260FAA022708031C7B
:10022800270FAB022C1401300310A70CA60CA50C49
:10023800A40CFF3E031D18290130B002031D252917
:100248002629ED282F08A7002E08A6002D08A500AE
:100258002C08A4000800003083120313A300003008
:10026800A2000030A1000030A000721C3C293D29EA
:100278005629760883120313A00777080311031879
:10028800013E03194829A107780803110318013E04
:1002980003194F29A207790803110318013E03190E
:1002A8005629A3070130FA000310F60DF70DF80DD3
:1002B800F90DFA0B582901300310F50CF40CF30C66
:1002C800F20CFF3E031D6029750874047304720460
:1002D800031D6F2970293929831203132308F50098
:1002E8002208F4002108F3002008F2000800033077
:1002F8007302E93003197202031C832984298829AF
:10030800E830F2000330F3007308F5007208F400D7
:100318000310F50CF40C0310F50CF40C740883129C
:1003280003139500CF30970572080339F4000330A2
:100338000310F40DFF3E031D9C290310740D970450
:10034800080083120313850186018701880189014A
:100358008312031787018801831603130810881076
:100368000A128A1112220A128A110A128A112C22DE
:100378000A128A118312031337080A128A11F0210C
:100388000A128A110A128A114F220A128A110800C7
:10039800F500C330831203139F0575080F39F40065
:1003A80001300310F40DFF3E031DD5290310740D11
:1003B8009F041030F400F40BDF29000083120313AC
:1003C8009F149F18E829E929E5291E08F3008316D8
:1003D80003131E08F2000800F5000A128A115A22B7
:1003E8000A128A110230F4000430F300BA30F20025
:1003F800F20BFC29F30BFC29F40BFC29000075080F
:10040800031D072A082A0D2A8312031308148810CB
:10041800112A831203130810881408008316031383
:10042800051401308316031788008901803083166C
:1004380003139F008130831203139F000630F300DB
:100448003030F200F20B262AF30B262A00000800AF
:10045800831603130711F9309200831203139501D1
:100468000C309700053092008C108C1C3C2A3D2AD9
:10047800392A08008B1C412A422A482A8B100B1261
:10048800013083120313B80071088A00700E8300CC
:10049800FE0E7E0E09008316031306148113013025
:1004A800950001138B100B168B170800831203138A
:0604B80008108810080086
:04400E00F22FFF3F4F
:00000001FF
