:060000000A128A110C280F
:10000800FE00030EF8000A08F9000A128A11E92D09
:100018000A128A110F280A128A113B260A128A111B
:10002800C3000A128A113C260A128A11C4000A1255
:100038008A113D260A128A11C5000A128A113E2623
:100048000A128A11C6000A128A113F260A128A1158
:10005800C7000A128A1140260A128A11C800BA017A
:10006800BB01BC01BD01BE01BF01C001C101C2018C
:10007800F001F101F201F301F40183010A128A117E
:10008800272A831203132608840083130008A70075
:10009800840A0008A80027082804031D54285528A6
:1000A80082282608023E84000008A700840A000867
:1000B800A8002708803EA90028080318013E003E32
:1000C800AA000430AB002A0DAA0CA90CAB0B6728B8
:1000D80029080F390A128A115E250A128A11831219
:1000E80003132608023E840083130008803E0F395C
:1000F8000A128A115E250A128A11312926088400FB
:100108000008A700840A0008A80027032804031D84
:100118008E288F28BC282608023E84000008A700E5
:10012800840A0008A8002708C03EA9002808031868
:10013800013E003EAA000430AB002A0DAA0CA90C0F
:10014800AB0BA12829080F390A128A115E250A1259
:100158008A11831203132608023E840083130008C1
:10016800C03E0F390A128A115E250A128A113129F6
:10017800260884000008A700840A0008A8000230A6
:1001880027062804031DC928CA28F7282608023E7E
:1001980084000008A700840A0008A8002708943EE5
:1001A800A90028080318013E003EAA000430AB004D
:1001B8002A0DAA0CA90CAB0BDC2829080F390A1246
:1001C8008A115E250A128A11831203132608023E39
:1001D800840083130008943E0F390A128A115E25A1
:1001E8000A128A113129260884000008A700840A07
:1001F8000008A800033027062804031D0429052940
:1002080031292608023E84000008A700840A000855
:10021800A8002708D43EA90028080318013E003E7C
:10022800AA000430AB002A0DAA0CA90CAB0B1729A5
:1002380029080F390A128A115E250A128A118312B7
:1002480003132608023E840083130008D43E0F39A6
:100258000A128A115E250A128A1100300A128A11BE
:1002680061240A128A11080083120313A9000830B6
:1002780029020318402941291A2A2908A70002300F
:100288000310A70DFF3E031D44290310270D403E10
:10029800A80004300310A80CFF3E031D4E292808AF
:1002A8000F390A128A115E250A128A118312031362
:1002B8002908A70002300310A70DFF3E031D5F2980
:1002C8000310270D403E0F390A128A115E250A12C3
:1002D8008A1183120313AA01700884008317711C02
:1002E80083130130A70072080739013E7D290310E6
:1002F800A70DFF3E031D7B29270880042A0826072F
:1003080084000A128A110D260A128A11A7000430E5
:100318000310A70CFF3E031D8C2927080F390A126A
:100328008A11F6220A128A11700884008317711C38
:100338008313013083120313A700720CA800A80CC2
:10034800280C0739013EAA290310A70DFF3E031DFB
:10035800A82927088004193083120313A700A70BC4
:10036800B329B629700884008317711C83130130E0
:1003780083120313A700720CA800A80C280C0739D5
:10038800013EC8290310A70DFF3E031DC6292708F3
:10039800FF3A80052A08260784000A128A110D26CA
:1003A8000A128A110F390A128A11F6220A128A11C0
:1003B800700884008317711C8313013083120313A0
:1003C800A700720CA800A80C280C0739013EEE29DA
:1003D8000310A70DFF3E031DEC29270880041930E0
:1003E80083120313A700A70BF729FA2970088400C2
:1003F8008317711C8313013083120313A700720C37
:10040800A800A80C280C0739013E0C2A0310A70DD8
:10041800FF3E031D0A2A2708FF3A80050130AA0774
:1004280008302A02031C192A1A2A702908300A12CD
:100438008A115E250A128A1100300A128A115E2575
:100448000A128A110800831203134008BB003F08F0
:10045800BA004208BD004108BC000A128A112326CE
:100468000A128A118130831203139F00FF3083160A
:1004780003138600870101087F3981008B178B10D1
:100488000B160113313084008312031343088313BE
:100498008000840A44088000840A45088000840A91
:1004A80046088000840A4708800026308400310806
:1004B8008000840A32088000840A33088000840A95
:1004C80034088000840A350880000A128A11AE2395
:1004D8000A128A11093083120313A60000300A1287
:1004E8008A1138210A128A11013083120313A600D7
:1004F80001300A128A1138210A128A118312031351
:1005080040083B06031D8A2A3F083A06031D8D2A28
:100518008E2A982A42083D06031D942A41083C0663
:100528000319972A982AB02A00300A128A115E25E0
:100538000A128A1101300A128A115E250A128A11DA
:10054800831203134008BB003F08BA004208BD00ED
:100558004108BC000130C80000300A128A11B525D4
:100568000A128A11831203132108B7002008B60063
:1005780001300A128A11B5250A128A11831203134F
:100588002108B9002008B8003708A1003608A000E3
:100598003908A3003808A2003F30A4000A128A11C3
:1005A800F9240A128A113F3083120313A6000A1293
:1005B8008A1145200A128A1183120313C8010230D6
:1005C80083120313B0008630AF009830AE00AE0B34
:1005D800EB2AAF0BEB2AB00BEB2A0000822A0A1297
:1005E8008A110C2883120313A200221CFC2AFD2A5C
:1005F800102B700884008317711C83130130A0002E
:1006080073080739013E0A2B0310A00DFF3E031D96
:10061800082B20088004232B700884008317711C82
:1006280083130130A00073080739013E1D2B031006
:10063800A00DFF3E031D1B2B2008FF3A8005A21CBE
:10064800262B272B3D2B700884008317711C8313DE
:100658000130A000730CA100A10C210C0739013E48
:10066800372B0310A00DFF3E031D352B20088004F7
:10067800532B700884008317711C83130130A0006A
:10068800730CA100A10C210C0739013E4D2B03105E
:10069800A00DFF3E031D4B2B2008FF3A8005221DAD
:1006A800562B572B6A2B700884008317711C8313F1
:1006B8000130A00074080739013E642B0310A00D17
:1006C800FF3E031D622B200880047D2B70088400E8
:1006D8008317711C83130130A00074080739013E89
:1006E800772B0310A00DFF3E031D752B2008FF3A42
:1006F8008005A21D802B812B972B700884008317FF
:10070800711C83130130A000740CA100A10C210CF2
:100718000739013E912B0310A00DFF3E031D8F2BBF
:1007280020088004AD2B700884008317711C831384
:100738000130A000740CA100A10C210C0739013E66
:10074800A72B0310A00DFF3E031DA52B2008FF3A81
:100758008005080070308400831203132608800087
:10076800840A27088000840A28088000840A290847
:100778008000840A2A08800000307106031DC62BF9
:1007880005307006031DC92BCA2BCE2B8316031305
:100798008501E92B00307106031DD42B0630700645
:1007A800031DD72BD82BDC2B831603138601E92BCB
:1007B80000307106031DE22B07307006031DE52B80
:1007C800E62B602C8316031387013430831203133E
:1007D800AC00F130AB00AB0BEF2BAC0BEF2B0330C5
:1007E8000A128A115E250A128A110D308312031328
:1007F800AC00FB30AB00AB0BFF2BAC0BFF2B03307B
:100808000A128A115E250A128A112A3083120313EA
:10081800AC008D30AB00AB0B0F2CAC0B0F2C0330A6
:100828000A128A115E250A128A1102300A128A11E6
:100838005E250A128A1102300A128A115E250A12EE
:100848008A1108300A128A115E250A128A110030AC
:100858000A128A115E250A128A1106300A128A11B2
:100868005E250A128A11083083120313AD002D1574
:100878002D08AB0004300310AB0CFF3E031D3F2CCA
:100888002B080F390A128A115E250A128A1183125F
:1008980003132D080F390A128A115E250A128A11CC
:1008A80000300A128A115E250A128A1101300A12D2
:1008B8008A115E250A128A11080083120313A50003
:1008C800700884008317711C83130130A300720819
:1008D8000739013E712C0310A30DFF3E031D6F2C39
:1008E800230880042508A30004300310A30CFF3E4E
:1008F800031D792C23080F390A128A11F6220A12CD
:100908008A11700884008317711C831301308312C5
:100918000313A300720CA400A40C240C0739013E95
:10092800972C0310A30DFF3E031D952C230880046C
:10093800193083120313A300A30BA02CA32C700857
:1009480084008317711C8313013083120313A300DF
:10095800720CA400A40C240C0739013EB52C03101A
:10096800A30DFF3E031DB32C2308FF3A800525087D
:100978000F390A128A11F6220A128A1170088400A5
:100988008317711C8313013083120313A300720CA5
:10099800A400A40C240C0739013ED42C0310A30D89
:1009A800FF3E031DD22C2308800419308312031341
:1009B800A300A30BDD2CE02C700884008317711CA6
:1009C8008313013083120313A300720CA400A40C38
:1009D800240C0739013EF22C0310A30DFF3E031D22
:1009E800F02C2308FF3A800508008312031324081B
:1009F800840083130008A700840A0008A8002408BC
:100A0800023E84000008A500840A0008A6000230FF
:100A18002102593003192002031C132D142D1B2DFC
:100A28000130A7020030031CA803A802352D0130AD
:100A38002102F430031920020318232D242D352D0B
:100A48000130A7070318A80A0030A80700302102C0
:100A5800103003192002031C322D332D352DA70128
:100A6800A80102302302593003192202031C3D2D2C
:100A78003E2D412DA501A6014E2D01302302F43053
:100A8800031922020318492D4A2D4E2D0130A500C5
:100A98000030A6002408840027088000840A28085B
:100AA80080002408023E840025088000840A260865
:100AB8008000080083120313A500700884008317C0
:100AC800711C83130130A30072080739013E6E2D93
:100AD8000310A30DFF3E031D6C2D2308FF3A80056C
:100AE80025080A128A11F6220A128A11700884004F
:100AF8008317711C8313013083120313A300720C34
:100B0800A400A40C240C0739013E8C2D0310A30D5E
:100B1800FF3E031D8A2D230880040B308312031324
:100B2800A4006130A300A30B972DA40B972D9C2D37
:100B3800700884008317711C831301308312031318
:100B4800A300720CA400A40C240C0739013EAE2D9E
:100B58000310A30DFF3E031DAC2D2308FF3A8005AB
:100B6800080083120313A400023083120313A200A7
:100B7800A20BBC2D0000C330831203139F05240869
:100B8800A20001300310A20DFF3E031DC62D031065
:100B9800220D9F04063083120313A3002F30A200F6
:100BA800A20BD42DA30BD42DD92D831203139F147C
:100BB8009F18DF2DE02DDC2D1E08A10083160313DE
:100BC8001E0883120313A00008008B1CEC2DED2DCA
:100BD800062E3430F700F130F600F60BF12DF70B46
:100BE800F12DF62D831203130618FB2DFC2D052E6F
:100BF8003E080A128A1131260A128A118312031337
:100C0800BE008B1079088A00780E8300FE0E7E0ED7
:100C1800090006308A000408840A82070034003478
:100C2800153415341F340E340A341F34113411347A
:100C380015341F340E340A341F3411340034033091
:100C480083160317880089018030831603139F00D9
:100C58000130831203139F000800F5007508031D77
:100C6800362E372E392E01303A2E00300800073440
:0A0C780000341A342C343E340134E9
:04400E00F22FFF3F4F
:00000001FF
