:100000000A128A110C280800FE00030EF1000A08EB
:10001000F2000A128A15C42F0A128A110F288316B9
:1000200003130A128A158D270A128A11C5000A12B3
:100030008A158E270A128A11C6000A128A158F277E
:100040000A128A11C7000A128A1590270A128A1109
:10005000C8000A128A1591270A128A11C900831250
:1000600003130A128A11FF270A128A11EF00831361
:10007000A0308400C5300A128A11F7270A128A11AB
:10008000ED01EE01F801F901FA0183010A128A116A
:1000900049280A128A1592270A128A118316031711
:1000A00089018316031301087F398100FF30860020
:1000B0008B170B1601135A308400450883138000F8
:1000C000840A46088000840A47088000840A480899
:1000D0008000840A490880002130840083120313C1
:1000E0005A088000840A5B088000840A5C0880004B
:1000F000840A5D088000840A5E0880000A128A1162
:100100008A230A128A1100300A128A110D260A1255
:100110008A1101300A128A110D260A128A117630CC
:10012000831203136F06031D962897283829083079
:100130000A128A110D260A128A1100300A128A1137
:100140000D260A128A110E3083120313A10080308B
:10015000A2000A128A11AE260A128A1108300A1267
:100160008A110D260A128A1109300A128A110D26E7
:100170000A128A110A128A159F270A128A11740814
:1001800083120313E0007308DF000030AB0000307F
:10019000AA000330A900FF30A8005F08A000600893
:1001A000A100A201A3010030A7000030A600C330C7
:1001B000A5005030A4000A128A1166260A128A117C
:1001C000831203132308AF002208AE002108AD00FC
:1001D0002008AC000A128A1174250A128A118312AF
:1001E00003132908EC002808EB001030A200273088
:1001F000A3006C08A5006B08A4000A128A11F4265B
:100200000A128A11831203132308E2002208E10074
:100210001030F3002730F4006C08F6006B08F5008E
:100220000A128A1171270A128A11740883120313A1
:10023000E4007308E3005030BA002430BB006208C9
:10024000BD006108BC006408BF006308BE000A125C
:100250008A11D4270A128A11503083120313A10085
:100260000030A2000A128A11AE260A128A11D82979
:1002700070306F06031D3D293E299C2908300A1263
:100280008A110D260A128A1100300A128A110D26CF
:100290000A128A11013083120313A1008030A200D8
:1002A0000A128A11AE260A128A1108300A128A111D
:1002B0000D260A128A110C300A128A110D260A1212
:1002C0008A110A128A159F270A128A11740883124A
:1002D0000313E6007308E500FF30A2000330A3001B
:1002E0006608F4006508F3006430F5000030F6009D
:1002F0000A128A11A9270A128A1174088312031399
:10030000A5007308A4000A128A11F4260A128A11A1
:10031000831203132308E8002208E7005030BA00D4
:100320001E30BB006808BD006708BC000A128A11B5
:10033000D4270A128A112C2908300A128A110D2694
:100340000A128A1100300A128A110D260A128A1125
:10035000183083120313A1008030A2000A128A1100
:10036000AE260A128A1108300A128A110D260A12C4
:100370008A1105300A128A110D260A128A110A12F0
:100380008A159F270A128A11740883120313EA0040
:100390007308E9005030BA002730BB006A08BD007E
:1003A0006908BC000A128A11D4270A128A112C2962
:1003B000023083120313CF000430CE00B930CD00D9
:1003C000CD0BE029CE0BE029CF0BE029E7298328CC
:1003D0000A128A110C28831203132B08840083133A
:1003E000000884000A128A1142270A128A11253A4B
:1003F000031DFB29FC29B62A2B0884000130800745
:10040000ED01EE010030FA00FF30F800FF30F90096
:100410002B0884000008B300330884000A128A11F4
:1004200042270A128A11753A031D172A182A8E2AA2
:100430002C0884000008AD00023080072D088400DD
:100440000008AF00840A0008B0002B0884003308BD
:10045000013E8000832A2030B4000130B402340809
:10046000A03E84000A30F3000030F4003008F600AB
:100470002F08F5000A128A1171270A128A117308CF
:10048000303E831380000A3083120313A200003031
:10049000A3003008A5002F08A4000A128A11F42630
:1004A0000A128A11831203132308B0002208AF0036
:1004B0002F08300403195D2A5E2A7C2A3408031DA4
:1004C000622A632A2D2A7C2A3408A03E84008313E2
:1004D0000008AD00AE012D08F3002E08F400290835
:1004E000F5002A08F6000A128A113A240A128A1123
:1004F000013083120313B40720303406031D812A10
:10050000822A642ACF2A330884000A128A114227D9
:100510000A128A11753A03192B2A8E2A2B08840095
:10052000000884000A128A1142270A128A11253A09
:10053000031D9B2A9C2AAE2A2B08840001308007C9
:100540002530F3000030F4002908F5002A08F600F1
:100550000A128A113A240A128A11CF2A831203132B
:100560002B088400013083138007CF2A2B088400D6
:10057000000884000A128A1142270A128A11AD006B
:10058000AE012D08F3002E08F4002908F5002A0812
:10059000F6000A128A113A240A128A11AE2A0800B9
:1005A000F500751CD42AD52AEA2A831603134008BD
:1005B00084008317411C83130130F300430807397B
:1005C000013EE42A0310F30DFF3E031DE22A7308E7
:1005D0008004FF2A83160313400884008317411CFC
:1005E00083130130F30043080739013EF92A031051
:1005F000F30DFF3E031DF72A7308FF3A8005F51C33
:10060000022B032B192B400884008317411C8313F2
:100610000130F300430CF400F40C740C0739013E74
:10062000132B0310F30DFF3E031D112B73088004E1
:100630002F2B400884008317411C83130130F300E3
:10064000430CF400F40C740C0739013E292B031001
:10065000F30DFF3E031D272B7308FF3A8005751D20
:10066000322B332B462B400884008317411C831305
:100670000130F30044080739013E402B0310F30D0D
:10068000FF3E031D3E2B73088004592B4008840055
:100690008317411C83130130F30044080739013EDE
:1006A000532B0310F30DFF3E031D512B7308FF3A2C
:1006B0008005F51D5C2B5D2B732B40088400831790
:1006C000411C83130130F300440CF400F40C740C4F
:1006D0000739013E6D2B0310F30DFF3E031D6B2BFD
:1006E00073088004892B400884008317411C8313FE
:1006F0000130F300440CF400F40C740C0739013E93
:10070000832B0310F30DFF3E031D812B7308FF3A6B
:1007100080050800C030840083120313210883136E
:100720008000840A22088000840A23088000840A4A
:1007300024088000840A25088000003083160313F3
:100740004106031DA52B05304006031DA82BA92B30
:10075000AB2B8501C22B00304106031DB12B0630A7
:100760004006031DB42BB52BB72B8601C22B0030DE
:100770004106031DBD2B07304006031DC02BC12BB6
:10078000392C8701343083120313A700F130A600FF
:10079000A60BC82BA70BC82B03300A128A110D26F3
:1007A0000A128A110D3083120313A700FB30A60032
:1007B000A60BD82BA70BD82B03300A128A110D26B3
:1007C0000A128A112A3083120313A7008D30A60063
:1007D000A60BE82BA70BE82B03300A128A110D2673
:1007E0000A128A1102300A128A110D260A128A117F
:1007F00002300A128A110D260A128A1108300A12D2
:100800008A110D260A128A1100300A128A110D2649
:100810000A128A1106300A128A110D260A128A114A
:10082000083083120313A80028152808A6000430F6
:100830000310A60CFF3E031D182C26080F390A12C0
:100840008A110D260A128A118312031328080F3900
:100850000A128A110D260A128A1100300A128A1110
:100860000D260A128A1101300A128A110D260A1267
:100870008A1108007508760403193F2C402C462C79
:1008800075087604031D452C462C4D2C73080A125E
:100890008A1103200A128A11D92C7508093E831285
:1008A0000313A00076080318013E003EA1002008B3
:1008B00084008317211C83130008A200840A000807
:1008C000A300220823040319662C672C992C7508B1
:1008D000093EA00076080318013E003EA100200852
:1008E00084008317211C83130008A200840A0008D7
:1008F000A3007508023EA40076080318013E003EDE
:10090000A500240884008317251C83130008A60073
:10091000840A0008A7002708803AA8002308803A24
:100920002802031D952C220826020318982C992CC6
:10093000D92C750884008317761C83130008831252
:100940000313A000840A0008A1007508023EA2005B
:1009500076080318013E003EA30022088400831796
:10096000231C831300082007A5002108A4000318F6
:10097000A40A801FBC2CA403831203132408A6001E
:10098000250884008317261C8313730880007508CC
:10099000023EA00076080318013E003EA100200898
:1009A00084008317211C831301308007840A0318F5
:1009B000800A080083120313A00083160313400863
:1009C00084008317411C83130130F6004208073965
:1009D000013EEC2C0310F60DFF3E031DEA2C7608B9
:1009E0008004831203132008F60004300310F60C71
:1009F000FF3E031DF62C76080F390A128A11D02209
:100A00000A128A1183160313400884008317411CBD
:100A100083130130F600420CF700F70C770C07390E
:100A2000013E142D0310F60DFF3E031D122D760816
:100A300080041A30F600F60B1B2D000083160313FA
:100A4000400884008317411C83130130F600420CD8
:100A5000F700F70C770C0739013E302D0310F60D27
:100A6000FF3E031D2E2D7608FF3A800583120313E7
:100A700020080F390A128A11D0220A128A1183160D
:100A80000313400884008317411C83130130F600D0
:100A9000420CF700F70C770C0739013E512D03107B
:100AA000F60DFF3E031D4F2D760880041A30F60028
:100AB000F60B582D0000831603134008840083179B
:100AC000411C83130130F600420CF700F70C770C41
:100AD0000739013E6D2D0310F60DFF3E031D6B2DF2
:100AE0007608FF3A8005080083120313B201AB1F9A
:100AF0007A2D7B2D882DA809A909AA09AB09A80A76
:100B00000319A90A0319AA0A0319AB0A0130B20092
:100B1000AF1F8B2D8C2D992DAC09AD09AE09AF09F6
:100B2000AC0A0319AD0A0319AE0A0319AF0A013062
:100B3000B2060030B6000030B5000030B40000301E
:100B4000B3002B082A04290428040319A82DA92D71
:100B5000F42D0130B100B72D0130B0000310A80D05
:100B6000A90DAA0DAB0DB00BAE2D0130B107AB1F17
:100B7000BA2DBB2DAC2D0130B0000310B30DB40D58
:100B8000B50DB60DB00BBD2D2B082F02031DD22DB8
:100B90002A082E02031DD22D29082D02031DD22D55
:100BA00028082C02031CD52DD62DE52D2808AC02D3
:100BB0002908031C290FAD022A08031C2A0FAE02C4
:100BC0002B08031C2B0FAF02331401300310AB0CA6
:100BD000AA0CA90CA80CFF3E031DE62D0130B102A2
:100BE000031DF32DF42DBB2D32080319F82DF92D1B
:100BF000042EB309B409B509B609B30A0319B40A36
:100C00000319B50A0319B60A3608AB003508AA005D
:100C10003408A9003308A800080083120313A000B9
:100C200083160313400884008317411C831301308B
:100C3000F60042080739013E1F2E0310F60DFF3E55
:100C4000031D1D2E7608FF3A80058312031320082A
:100C50000A128A11D0220A128A118316031340083D
:100C600084008317411C83130130F600420CF70007
:100C7000F70C770C0739013E3F2E0310F60DFF3EAF
:100C8000031D3D2E760880040B30F7006230F6001D
:100C9000F60B482EF70B482E00008316031340086E
:100CA00084008317411C83130130F600420CF700C7
:100CB000F70C770C0739013E5F2E0310F60DFF3E4F
:100CC000031D5D2E7608FF3A800508000030F7000E
:100CD0000030F6000030F5000030F40083120313FA
:100CE000201C732E742E8B2E2408F4072508031164
:100CF0000318013E03197D2EF5072608031103187A
:100D0000013E0319842EF607270803110318013E3C
:100D100003198B2EF7070130F3000310A40DA50D66
:100D2000A60DA70DF30B8D2E01300310A30CA20C02
:100D3000A10CA00CFF3E031D952E230822042104C4
:100D40002004031DA42EA52E6E2E7708A30076087E
:100D5000A2007508A1007408A00008008312031304
:100D6000A601A701D72E26082107A4002208A30068
:100D70000318A30AA61FBD2EA3038312031323087F
:100D8000A5002508FF00240884000A128A113827CC
:100D90000A128A110A128A11DA240A128A110130FF
:100DA00083120313A6070318A70A0030A707260813
:100DB0002107A4002208A3000318A30AA61FE12EFE
:100DC000A303831203132308A5002508FF002408AA
:100DD00084000A128A1138270A128A11003A031D68
:100DE000F22EF32EB32E080083120313A601A701DF
:100DF000220823040319FD2EFE2E332F0130A800F4
:100E00000A2F01300310A20DA30DFF3E031D022F78
:100E10000130A807A31F0D2F0E2F012F0130031043
:100E2000A60DA70DFF3E031D0F2F23082502031D4E
:100E30001B2F22082402031C1E2F1F2F262F2208DF
:100E4000A4022308031CA503A502261401300310E5
:100E5000A30CA20CFF3E031D272F0130A802031D87
:100E6000322F332F0E2F2708A3002608A2000800D8
:100E7000FF1B422F83137F1883170008840A03196E
:100E8000FF0A080007308A000408840A8207003439
:100E900050346F347234633465346E347434613476
:100EA0006A3465343A342034003456346F346C3448
:100EB000743461346A3465343A3420340034413453
:100EC000443443343A3420340034253475342034E7
:100ED000253425340034253475342E3425347534C6
:100EE0000034730874040319762F772FA42F013070
:100EF000F700832F01300310F30DF40DFF3E031DA7
:100F00007B2F0130F707F41F862F872F7A2F740865
:100F10007602031D8D2F73087502031C902F912FED
:100F2000972F7308F5027408031CF603F6020130CC
:100F30000310F40CF30CFF3E031D982F0130F70251
:100F4000031DA32FA42F872F7608F4007508F30044
:100F5000080083120313A001A101731CB02FB12F4D
:100F6000B92F750883120313A0070318A10A760886
:100F7000A10701300310F50DF60DFF3E031DBA2F3A
:100F800001300310F40CF30CFF3E031DC12F730856
:100F90007404031DCC2FCD2FAD2F83120313210812
:100FA000F4002008F30008003C3083120313C10052
:100FB0003A08C2000030C300C401C501CB01CC0116
:100FC0004230B5000030B6003B08B7004130B800F1
:100FD0000A128A15DD270A128A11831203134408A4
:100FE0003A07C000400884008313800108006400B1
:100FF0008001840A0406031900340406F82F7634AD
:101F1A00073400341A342C343E3401308316031744
:101F2A0088008130831203139F00803083160313C5
:101F3A009F0008000330F500F50BA12F831203134D
:101F4A009F149F18A92FAA2FA62F1E08F4008316E4
:101F5A0003131E08F3000800F00076307006031D14
:101F6A00B72FB82FBA2F7030C32F70307006031DE9
:101F7A00BF2FC02FC22F6130C32F763008008B1CB1
:101F8A00C72FC82FD62F8B13831203136F080A1279
:101F9A008A15B1270A128A1583120313EF008B17C9
:101FAA008B1072088A00710E8300FE0E7E0E0900E5
:101FBA00831203133708B900EF2F3508A900360832
:101FCA00AA003930AB003808AC000A128A11EB219A
:101FDA000A128A1583120313390884000A128A1115
:101FEA0042270A128A15003A031DFC2FFD2FE22F01
:061FFA00B501B60108006C
:04400E00F22FFF3F4F
:00000001FF
