:060000000A128A11EB2F29
:100CEC00FC346034DA34F2346634B634BE34E03476
:100CFC00FE34F6347E088A007F0882000A128A11BC
:100D0C0080260A128A118000840A04087D060319C1
:100D1C000034FF0A0319FE0A842E2E308400203082
:100D2C00F0000A30F10083130008F200040AF3000B
:100D3C007008840072088000040AF00073088400B4
:100D4C00F10B992E8316031788018901831603135F
:100D5C0001087F398100FF308600880187018312EA
:100D6C00031387018316031388018312031388016D
:100D7C00AC01AD01AA01AB01061DC52EC62E492F33
:100D8C000618C92ECA2E062F0330F2000830F100C7
:100D9C007730F000F00BD02EF10BD02EF20BD02EC2
:100DAC00013083120313AC070318AD0A0030AD07F2
:100DBC002D08803AFF0080307F02031DE72E0A3099
:100DCC002C02031CEA2EEB2E062F83120313AC010C
:100DDC00AD010130AA070318AB0A0030AB072B0892
:100DEC00803AFF0080307F02031DFE2E0A302A025B
:100DFC00031C012F022F062F83120313AA01AB0130
:100E0C008312031386180B2F0C2FDA2F0330F200EA
:100E1C000830F1007730F000F00B122FF10B122F8D
:100E2C00F20B122FFF3083120313AC070318AD0A19
:100E3C00FF30AD07AD1F232F242FDA2F0930AC0064
:100E4C000030AD002A082B04031D2D2F2E2F332F1D
:100E5C000930AA000030AB00DA2F2B08803AFF00D3
:100E6C0080307F02031D3C2F01302A02031C3F2FD0
:100E7C00402FDA2FFF3083120313AA070318AB0A93
:100E8C00FF30AB07DA2F06184C2F4D2F912F033064
:100E9C00F2000830F1007730F000F00B532FF10B1B
:100EAC00532FF20B532F831203132C08023EAC006A
:100EBC002D080318013E003EAD002D08803AFF00BE
:100ECC0080307F02031D6C2F0A302C02031C6F2F05
:100EDC00702F912F831203132C08F63EAC002D08B3
:100EEC000318013EFF3EAD000130AA070318AB0A00
:100EFC000030AB072B08803AFF0080307F02031DC7
:100F0C00892F0A302A02031C8C2F8D2F912F8312CC
:100F1C000313AA01AB01831203138618962F972F84
:100F2C00DA2F0330F2000830F1007730F000F00BCC
:100F3C009D2FF10B9D2FF20B9D2F831203132C0869
:100F4C00FE3EAC002D080318013EFF3EAD00AD1F68
:100F5C00B02FB12FDA2FAC01AD012A082B04031DE1
:100F6C00B82FB92FC22F0930AA000030AB000830BF
:100F7C00AC000030AD00DA2F2B08803AFF00803037
:100F8C007F02031DCB2F01302A02031CCE2FCF2F43
:100F9C00DA2F831203132C080A3EAC002D08031819
:100FAC00013E003EAD00402F831203132C08203E5F
:100FBC0084008313000888002A08203E840000085F
:100FCC008700C22E0A128A11002883133830FD00C4
:100FDC000630FE007630FF002E3084000A128A1193
:100FEC0084260A128A11F401F501F60183010A1212
:040FFC008A11932E95
:04400E00F22FFF3F4F
:00000001FF
