:060000000A128A110C280F
:10000800FE00030EF1000A08F2000A128A11B22C4F
:100018000A128A110F280A128A11D7240A128A1181
:10002800B1000A128A11D8240A128A11B2000A12DF
:100038008A11D9240A128A11B3000A128A11DA2401
:100048000A128A11B4000A128A11DB240A128A11D0
:10005800B5000A128A11DC240A128A11B600AB0113
:10006800AC01AD01AE01AF01B00183010A128A11E2
:100078002C2983120313A2000830220203184528F2
:1000880046281F292208A00002300310A00DFF3EB9
:10009800031D49280310200D403EA1000430031021
:1000A800A10CFF3E031D532821080F390A128A119B
:1000B800F3230A128A11831203132208A0000230C4
:1000C8000310A00DFF3E031D64280310200D403EC1
:1000D8000F390A128A11F3230A128A1183120313A1
:1000E800A3012B08840083172C1C83130130A00064
:1000F8002D080739013E82280310A00DFF3E031D7D
:100108008028200880042308790784000A128A11AD
:1001180048240A128A11A00004300310A00CFF3EE4
:10012800031D912820080F390A128A11F4210A1296
:100138008A11831203132B08840083172C1C831342
:100148000130A0002D0CA100A10C210C0739013EA3
:10015800AF280310A00DFF3E031DAD282008800422
:10016800193083120313A000A00BB828BB288312F0
:1001780003132B08840083172C1C83130130A00061
:100188002D0CA100A10C210C0739013ECD2803102C
:10019800A00DFF3E031DCB282008FF3A8005230849
:1001A800790784000A128A1148240A128A110F3921
:1001B8000A128A11F4210A128A11831203132B08D6
:1001C800840083172C1C83130130A0002D0CA10080
:1001D800A10C210C0739013EF3280310A00DFF3EA6
:1001E800031DF12820088004193083120313A0008E
:1001F800A00BFC28FF28831203132B088400831705
:100208002C1C83130130A0002D0CA100A10C210C83
:100218000739013E11290310A00DFF3E031D0F29C8
:100228002008FF3A80050130A30708302302031C89
:100238001E291F29752808300A128A11F3230A1269
:100248008A1100300A128A11F3230A128A1108004F
:1002580083160317880189018316031301087F3960
:10026800810087018801FF3086008312031387010C
:1002780088018B170B16831603130113263084008D
:1002880083120313310883138000840A3208800024
:10029800840A33088000840A34088000840A3508F8
:1002A80080002030840026088000840A2708800007
:1002B800840A28088000840A29088000840A2A08F9
:1002C80080000A128A11AE220A128A110930F90036
:1002D80000300A128A113D200A128A110130F900F1
:1002E80001300A128A113D200A128A11831203135F
:1002F8003608031980298129ED2900300A128A114C
:10030800F3230A128A1101300A128A11F3230A12FE
:100318008A11831203133008031D93299429C129D4
:1003280008300A128A11F3230A128A1100300A12BD
:100338008A11F3230A128A111130F9000A128A115C
:100348008A240A128A110C300A128A11F3230A121B
:100358008A1107300A128A11F3230A128A1100300F
:100368000A128A115F230A128A112E30F9000A1222
:100378008A118A240A128A11ED2908300A128A1170
:10038800F3230A128A1100300A128A11F3230A127F
:100398008A112530F9000A128A118A240A128A1150
:1003A8000C300A128A11F3230A128A1107300A1232
:1003B8008A11F3230A128A1101300A128A115F2363
:1003C8000A128A113730F9000A128A118A240A128D
:1003D8008A1183120313B6017A290A128A110C288A
:1003E800F500751CF829F9290E2A831203132B0826
:1003F800840083172C1C83130130F3002E0807395F
:10040800013E082A0310F30DFF3E031D062A730858
:100418008004232A831203132B08840083172C1CBF
:1004280083130130F3002E080739013E1D2A0310FB
:10043800F30DFF3E031D1B2A7308FF3A8005F51CC8
:10044800262A272A3D2A2B08840083172C1C83136D
:100458000130F3002E0CF400F40C740C0739013E43
:10046800372A0310F30DFF3E031D352A7308800455
:10047800532A2B08840083172C1C83130130F300A4
:100488002E0CF400F40C740C0739013E4D2A0310AD
:10049800F30DFF3E031D4B2A7308FF3A8005751DB7
:1004A800562A572A6A2A2B08840083172C1C831380
:1004B8000130F3002F080739013E642A0310F30DB9
:1004C800FF3E031D622A730880047D2A2B088400DE
:1004D80083172C1C83130130F3002F080739013EC2
:1004E800772A0310F30DFF3E031D752A7308FF3AA0
:1004F8008005F51D802A812A972A2B0884008317F6
:100508002C1C83130130F3002F0CF400F40C740C32
:100518000739013E912A0310F30DFF3E031D8F2A70
:1005280073088004AD2A2B08840083172C1C8313BE
:100538000130F3002F0CF400F40C740C0739013E61
:10054800A72A0310F30DFF3E031DA52A7308FF3ADF
:10055800800508002B3084008312031320088313BE
:100568008000840A21088000840A22088000840A06
:1005780023088000840A2408800000302C06031D0C
:10058800C72A05302B06031DCA2ACB2ACF2A831671
:1005980003138501EA2A00302C06031DD52A0630EC
:1005A8002B06031DD82AD92ADD2A831603138601B0
:1005B800EA2A00302C06031DE32A07302B06031D08
:1005C800E62AE72A5E2B8316031387013430FA00E4
:1005D800F130F900F90BEE2AFA0BEE2AF32A033070
:1005E8000A128A11F3230A128A110D30FA00FB301D
:1005F800F900F90BFD2AFA0BFD2A022B03300A1227
:100608008A11F3230A128A112A30FA008D30F90070
:10061800F90B0C2BFA0B0C2B112B03300A128A1135
:10062800F3230A128A1102300A128A11F3230A12DA
:100638008A1102300A128A11F3230A128A11083029
:100648000A128A11F3230A128A1100300A128A1137
:10065800F3230A128A1106300A128A11F3230A12A6
:100668008A11083083120313A50025152508F900FF
:1006780004300310F90CFF3E031D3D2B79080F3998
:100688000A128A11F3230A128A1183120313250806
:100698000F390A128A11F3230A128A1100300A123A
:1006A8008A11F3230A128A1101300A128A11F323DC
:1006B8000A128A110800F800831203132B08840019
:1006C80083172C1C83130130F6002D080739013ECF
:1006D8006F2B0310F60DFF3E031D6D2B760880046B
:1006E8007808F60004300310F60CFF3E031D772B44
:1006F80076080F390A128A11F4210A128A11831214
:1007080003132B08840083172C1C83130130F60075
:100718002D0CF700F70C770C0739013E952B0310C9
:10072800F60DFF3E031D932B760880041A30F60061
:10073800F60B9C2B0000831203132B0884008317ED
:100748002C1C83130130F6002D0CF700F70C770CE6
:100758000739013EB12B0310F60DFF3E031DAF2BE9
:100768007608FF3A800578080F390A128A11F421B1
:100778000A128A11831203132B08840083172C1C76
:1007880083130130F6002D0CF700F70C770C0739AE
:10079800013ED02B0310F60DFF3E031DCE2B76082D
:1007A80080041A30F600F60BD72B000083120313CF
:1007B8002B08840083172C1C83130130F6002D0CA2
:1007C800F700F70C770C0739013EEC2B0310F60DF8
:1007D800FF3E031DEA2B7608FF3A80050800F80063
:1007E800831203132B08840083172C1C83130130F6
:1007F800F6002D080739013E032C0310F60DFF3EC5
:10080800031D012C7608FF3A800578080A128A1120
:10081800F4210A128A11831203132B088400831708
:100828002C1C83130130F6002D0CF700F70C770C05
:100838000739013E212C0310F60DFF3E031D1F2C26
:10084800760880040B30F7006230F600F60B2A2C8D
:10085800F70B2A2C0000831203132B08840083173C
:100868002C1C83130130F6002D0CF700F70C770CC5
:100878000739013E412C0310F60DFF3E031D3F2CA6
:100888007608FF3A8005080004308A000408840AC4
:1008980082070034113415341F340E340A341F34DF
:1008A800113400341F341B341934183419341B34F0
:1008B8001F34003420344D346934633472346F3457
:1008C800703472346F34633465347334613464342F
:1008D8006F34723465347334203400342034563421
:1008E8006534723461346E346F342034003420340B
:1008F80059346F3475345434753462346534003483
:1009080020344D344C3442344234003483120313BF
:10091800A001A101A42C2008790784000A128A11D9
:1009280048240A128A110A128A115F230A128A11AC
:10093800013083120313A0070318A10A0030A1078E
:100948002008790784000A128A1148240A128A1199
:10095800003A031DB02CB12C8F2C08008B1CB52C31
:10096800B62CC62C8B13013083120313B600300843
:100978000A128A11CD240A128A1183120313B000B5
:100988008B178B1072088A00710E8300FE0E7E0E84
:100998000900F0007008031DD22CD32CD52C01308F
:1009A800D62C00300800073400341A342C343E3476
:0209B800013408
:04400E00F22FFF3F4F
:00000001FF
