:060000000A128A110C280F
:10000800FE00030EF0000A08F1000A128A114F2FB1
:100018000A128A110F2883133730FD000730FE00BB
:10002800CB30FF00203084000A128A15DC270A1220
:100038008A110A128A11F9270A128A11FA000A1279
:100048008A11FA270A128A11FB00373084004730D8
:100058000A128A15D0270A128A1183010A128A11F4
:10006800712F83120313C9000830490203183D2871
:100078003E2815294908C70002300310C70DFF3E66
:10008800031D41280310470D403EC80004300310EB
:10009800C80CFF3E031D4B2848080F390A128A1165
:1000A8002D260A128A11831203134908C700023049
:1000B8000310C70DFF3E031D5C280310470D403E8B
:1000C8000F390A128A112D260A128A118312031374
:1000D800CA013E08840083173F1C83130130C70000
:1000E80040080739013E7A280310C70DFF3E031D5B
:1000F8007828470880044A087807C700470884001A
:1001080083130008C80004300310C80CFF3E031D09
:10011800882848080F390A128A11F7220A128A1108
:10012800831203133E08840083173F1C8313013096
:10013800C700400CC800C80C480C0739013EA62867
:100148000310C70DFF3E031DA4284708800419307B
:1001580083120313C700C70BAF28B22883120313F7
:100168003E08840083173F1C83130130C700400CEE
:10017800C800C80C480C0739013EC4280310C70D35
:10018800FF3E031DC2284708FF3A80054A08780742
:10019800C70047088400831300080F390A128A1120
:1001A800F7220A128A11831203133E088400831768
:1001B8003F1C83130130C700400CC800C80C480C12
:1001C8000739013EE9280310C70DFF3E031DE72844
:1001D80047088004193083120313C700C70BF2289D
:1001E800F528831203133E08840083173F1C8313EA
:1001F8000130C700400CC800C80C480C0739013E44
:1002080007290310C70DFF3E031D05294708FF3ABC
:1002180080050130CA0708304A02031C1429152931
:100228006D2808300A128A112D260A128A11003008
:100238000A128A112D260A128A110800F9017B0870
:100248000319272928293D2907307B0203182D295E
:100258002E293D29013083120313C9007B08FF3E74
:10026800013E38290310C90DFF3E031D36294908F0
:10027800F90079088312031388002508031D45290E
:10028800462947290E2AA50100300A128A112D266F
:100298000A128A1101300A128A112D260A128A11AD
:1002A80008300A128A112D260A128A1101300A1200
:1002B8008A112D260A128A116230F8000A128A1150
:1002C800FF260A128A117B08303E0A128A1162241C
:1002D8000A128A115C30F8000A128A11FF260A12E3
:1002E8008A11831203134608031D7B297C298D2953
:1002F8000A128A11E2270A128A11003A031D852977
:1003080086298D292D300A128A1162240A128A112F
:1003180094297A08303E0A128A1162240A128A1134
:100328000C300A128A112D260A128A1101300A127B
:100338008A112D260A128A11ED292F30F8000A1287
:100348008A11FF260A128A110E2A2430F8000A128E
:100358008A11FF260A128A110E2A4230F8000A1260
:100368008A11FF260A128A1100300A128A116224A1
:100378000A128A110E2A5430F8000A128A11FF262E
:100388000A128A1101300A128A1162240A128A1189
:100398000E2A4B30F8000A128A11FF260A128A1117
:1003A8000E2A1530F8000A128A11FF260A128A113D
:1003B8000E2A3930F8000A128A11FF260A128A1109
:1003C8000E2A6830F8000A128A11FF260A128A11CA
:1003D8000E2A831203134608C900CA014A08003AC4
:1003E8000319F729E5294908003A0319A129013A0F
:1003F8000319A929033A0319B129013A0319BF2995
:10040800073A0319CD29013A0319D529033A0319E3
:10041800DD29E5290800F50002307506031D152AB7
:10042800162AD52A013083120313C507D52A750366
:10043800031D1F2A202AF62A01300A128A11F624DF
:100448000A128A110A128A11C2260A128A11F62A77
:1004580002307506031D312A322AF62A0A3045026F
:10046800031C372A382AF62AC5010130FB07013058
:10047800A5007A087B020318422A432A4C2A7B08E3
:10048800373E84008313000803194B2A4C2AF62AA6
:100498007B08373E84008313800104300A128A11D6
:1004A800F6240A128A11F62A02307506031D5D2AFF
:1004B8005E2AF62A0A304502031C632A642AF62AB1
:1004C800C5010130FB020130A5007B087A02031840
:1004D8006E2A6F2A782A7B08373E84008313000827
:1004E8000319772A782AF62A7B08373E8400831373
:1004F800800104300A128A11F6240A128A11F62A97
:1005080002307506031D892A8A2AF62A0530450213
:10051800031C8F2A902AF62A05300A128A11F6241B
:100528000A128A11F62A02307506031D9C2A9D2A92
:10053800F62A14304502031CA22AA32AF62A0630FA
:100548000A128A11F6240A128A11F62A023075064E
:10055800031DAF2AB02AF62A05304502031CB52A26
:10056800B62AF62A0A128A11E2270A128A11003AD2
:100578000319BF2AC02AC72A01300A128A11F62491
:100588000A128A11262A00300A128A11F6240A123F
:100598008A11F62A00300A128A11F6240A128A11E0
:1005A800F62A831203134608F300F4017408003A8C
:1005B8000319DF2ACE2A7308003A03191B2A013AC5
:1005C8000319262A033A03192C2A013A0319582A2F
:1005D800073A0319842A013A0319972A033A031997
:1005E800AA2ACE2A0800F400741CFB2AFC2A112B24
:1005F800831203133E08840083173F1C83130130C2
:10060800F20041080739013E0B2B0310F20DFF3EA3
:10061800031D092B72088004262B831203133E083E
:10062800840083173F1C83130130F2004108073907
:10063800013E202B0310F20DFF3E031D1E2B7208F6
:10064800FF3A8005F41C292B2A2B402B3E088400F6
:1006580083173F1C83130130F200410CF300F30CA5
:10066800730C0739013E3A2B0310F20DFF3E031DB0
:10067800382B72088004562B3E08840083173F1CD1
:1006880083130130F200410CF300F30C730C0739AB
:10069800013E502B0310F20DFF3E031D4E2B720836
:1006A800FF3A8005741D592B5A2B6D2B3E08840088
:1006B80083173F1C83130130F20042080739013EBB
:1006C800672B0310F20DFF3E031D652B7208800493
:1006D800802B3E08840083173F1C83130130F200EF
:1006E80042080739013E7A2B0310F20DFF3E031D25
:1006F800782B7208FF3A8005F41D832B842B9A2BE4
:100708003E08840083173F1C83130130F200420C1B
:10071800F300F30C730C0739013E942B0310F20D10
:10072800FF3E031D922B72088004B02B3E08840004
:1007380083173F1C83130130F200420CF300F30CC3
:10074800730C0739013EAA2B0310F20DFF3E031D5F
:10075800A82B7208FF3A800508003E3084008312F7
:100768000313470883138000840A48088000840A1A
:1007780049088000840A4A088000840A4B088000DF
:1007880000303F06031DCA2B05303E06031DCD2B46
:10079800CE2BD22B831603138501ED2B00303F0699
:1007A800031DD82B06303E06031DDB2BDC2BE02B6C
:1007B800831603138601ED2B00303F06031DE62B3D
:1007C80007303E06031DE92BEA2B612C8316031321
:1007D80087013430F900F130F800F80BF12BF90BF0
:1007E800F12BF62B03300A128A112D260A128A11D0
:1007F8000D30F900FB30F800F80B002CF90B002C39
:10080800052C03300A128A112D260A128A112A3061
:10081800F9008D30F800F80B0F2CF90B0F2C142C65
:1008280003300A128A112D260A128A1102300A127E
:100838008A112D260A128A1102300A128A112D26CF
:100848000A128A1108300A128A112D260A128A11F0
:1008580000300A128A112D260A128A1106300A124D
:100868008A112D260A128A11083083120313CC002C
:100878004C154C08F80004300310F80CFF3E031D1B
:10088800402C78080F390A128A112D260A128A116B
:10089800831203134C080F390A128A112D260A12E3
:1008A8008A1100300A128A112D260A128A11013083
:1008B8000A128A112D260A128A110800F7008312DB
:1008C80003133E08840083173F1C83130130F5008F
:1008D80040080739013E722C0310F50DFF3E031D39
:1008E800702C750880047708F50004300310F50CA7
:1008F800FF3E031D7A2C75080F390A128A11F72258
:100908000A128A11831203133E08840083173F1CBE
:1009180083130130F500400CF600F60C760C07390D
:10092800013E982C0310F50DFF3E031D962C75080B
:1009380080041A30F500F50B9F2C00008312031376
:100948003E08840083173F1C83130130F500400CD8
:10095800F600F60C760C0739013EB42C0310F50DA1
:10096800FF3E031DB22C7508FF3A800577080F3942
:100978000A128A11F7220A128A11831203133E08F7
:10098800840083173F1C83130130F500400CF600E8
:10099800F60C760C0739013ED32C0310F50DFF3EFB
:1009A800031DD12C750880041A30F500F50BDA2CDC
:1009B8000000831203133E08840083173F1C83132F
:1009C8000130F500400CF600F60C760C0739013EB4
:1009D800EF2C0310F50DFF3E031DED2C7508FF3AB3
:1009E80080050800F200720883120313C600C501CF
:0609F8000130A50008001B
:100A000005308A000408840A820700343134323405
:100A10003334413434343534363442343734383472
:100A2000393443342A343034233444340E340D34CE
:100A30000B34073450347534653472347434613493
:100A4000203461346234693465347234743461340E
:100A50000034503472346F34633465347334613429
:100A60006E3464346F34003445346E34203465346D
:100A70007334703465347234613400344334653413
:100A80007234723461346E3464346F3400345334ED
:100A900075346234693465346E3464346F340034D0
:100AA000413462347234693465346E3464346F3482
:100AB0000034423461346A3461346E3464346F34E7
:100AC000003420344F3462346A343A3400345034C1
:100AD000693473346F343A340034453472347234C8
:100AE0006F3472340034FF30831203138600F50133
:100AF0007508113E84000A128A1100250A128A1113
:100B0000F0388312031386002130F200F20B862D99
:100B1000831203130608F20004300310F20CFF3EA8
:100B2000031D8D2D7208F4000F30F405F60101301D
:100B3000F200760A9D2D0310F20DFF3E031D9B2D42
:100B400072087405031DA52DA62DBE2DFF3083123E
:100B5000031386007508F20002300310F20DFF3E09
:100B6000031DAD2D01307207F30076087307840072
:100B70000A128A1100250A128A11D32D0130F607B4
:100B800004307602031CC52DC62D972D0130F507C4
:100B900004307502031CCD2DCE2D782DFF3083122D
:100BA00003138600003008008316031788018901AB
:100BB00083120317870188018312031387018316A9
:100BC00003138701FF30831203138600F03083166E
:100BD000031386008113F0309500831203138801FC
:100BE00083160313880147308400831203132008FF
:100BF00083138000840A21088000840A2208800070
:100C0000840A23088000840A240880000A128A11BA
:100C1000B1230A128A1100300A128A112D260A12F3
:100C20008A1101300A128A112D260A128A112F30D8
:100C3000F80000300A128A1135200A128A11273072
:100C4000F80001300A128A1135200A128A110A129C
:100C50008A15EB270A128A110800F7008312031382
:100C60003E08840083173F1C83130130F5004008C1
:100C70000739013E3D2E0310F50DFF3E031D3B2EAF
:100C80007508FF3A800577080A128A11F7220A12BE
:100C90008A11831203133E08840083173F1C8313B9
:100CA0000130F500400CF600F60C760C0739013ED9
:100CB0005B2E0310F50DFF3E031D592E75088004B1
:100CC0000B30F6006230F500F50B642EF60B642E47
:100CD0000000831203133E08840083173F1C831314
:100CE0000130F500400CF600F60C760C0739013E99
:100CF0007B2E0310F50DFF3E031D792E7508FF3A7C
:100D0000800508007B08373E840083130008031920
:100D10008A2E8B2E8D2E7B08C12E7B08013EF20081
:100D200007307202031C952E962E972EA42E720861
:100D3000373E8400000803199E2E9F2EA12E7208B4
:100D4000C12E0130F207902E7B08F20002307202B1
:100D50000318AB2EAC2EAD2E8B2E7208363E8400BF
:100D600000080319B42EB52EB82E7208FF3EC12E0E
:100D70000130F202023072020318BF2EC02EAD2ED7
:100D80008B2E08000A128A11E2270A128A11003AF1
:100D9000031DCB2ECC2ED32E00300A128A11F6243E
:100DA0000A128A11FE2E0A128A1182260A128A114A
:100DB000FA007A087B020318DE2EDF2EE62E0230C0
:100DC0000A128A11F6240A128A11FE2E7B087A0270
:100DD0000318EB2EEC2EF32E03300A128A11F624A0
:100DE0000A128A11FE2E7B08373E8400831380018D
:100DF00004300A128A11F6240A128A11080083129A
:100E00000313C701C801192F4708780784000A1285
:100E10008A1100250A128A110A128A1162240A1202
:100E20008A11013083120313C7070318C80A003060
:100E3000C8074708780784000A128A1100250A1299
:100E40008A11003A031D252F262F042F08000A12AD
:100E50008A1192270A128A11F80031307802031C95
:100E6000322F332F422F373078020318382F392F83
:100E7000422F7808D03E0A128A11B2270A128A112C
:100E800001304E2F8312031344080319482F492FB2
:100E90004D2F0130C40202304E2F00300800831263
:100EA00003130C1C542F552F6A2F831603130C1C8D
:100EB0005A2F5B2F6A2F9E30831203138F005830F6
:100EC0008E000C10FA3044020318672F682F6A2F27
:100ED0000130C40771088A00700E8300FE0E7E0E7A
:100EE00009000A128A11D4250A128A110A128A11DB
:100EF00027270A128A1183120313CD004D08031904
:100F0000822F832F892F4D080A128A110F220A126D
:100F10008A110A128A1122210A128A11762F0A12C4
:100F20008A110C280A128A1173250A128A11F700F5
:100F3000770803199C2F9D2FA82F831203134308B2
:100F4000031DA32FA42FA82F7708C3007708B12F64
:100F50007708031DAC2FAD2FB02F83120313C301ED
:100F600000300800F20072080319B72FB82FCA2FFB
:100F7000073072020318BD2FBE2FCA2F72088312CA
:100F80000313A6007208373E8400013083138000EB
:100F90000130A5000800073400341A342C343E34E4
:100FA0000134013404340434043404341F340E3462
:100FB0000434003404340E341F3404340434043450
:100FC000043400340130F2007208373E8400831389
:100FD00000080319EC2FED2FEF2F0130F82F01300F
:100FE000F20707307202031CF62FF72FE42F0030B0
:060FF00008000134013489
:101FA00064008001840A0406031900340406D12F5A
:101FB0007E088A007F0882000A128A15D8270A1232
:101FC0008A158000840A04087D0603190034FF0A7C
:101FD0000319FE0ADC2F83120313101090109016C1
:101FE000101690119E308F0058308E000C10831602
:101FF00003130C140B178B17831203131014080010
:04400E00F22FFF3F4F
:00000001FF
