:060000000A128A1110280B
:10000800FE00030E83120313BC000A08BD007F081C
:10001800BE000A128A119C2A0A128A1113280A128F
:100028008A1153230A128A11CC000A128A11542306
:100038000A128A11CD000A128A1155230A128A114E
:10004800CE000A128A1156230A128A11CF00D00153
:1000580083010A128A113A2B83160313B400003065
:10006800B8000030B7000230B6005830B500003094
:10007800A3000030A2000030A100B430A000340872
:10008800B000B101B201B301330883120313C200F7
:1000980083160313320883120313C1008316031354
:1000A800310883120313C000831603133008831228
:1000B8000313BF000030C6000030C5000930C4007B
:1000C8006030C3000A128A11CC210A128A118312E5
:1000D8000313420883160313A7008312031341086E
:1000E80083160313A6008312031340088316031311
:1000F800A500831203133F0883160313A4000A12F2
:100108008A11A6200A128A11831603132008B5073C
:10011800210803110318013E03199328B607220882
:1001280003110318013E03199A28B707230803117E
:100138000318013E0319A128B8073608AF0035088F
:10014800AE000800003083160313AC000030AB008B
:100158000030AA000030A90023082204210420044A
:100168000319B728B82803290130AD00C628013083
:10017800A8000310A00DA10DA20DA30DA80BBD286A
:100188000130AD07A31FC928CA28BB280130A80021
:100198000310A90DAA0DAB0DAC0DA80BCC28230894
:1001A8002702031DE12822082602031DE128210851
:1001B8002502031DE12820082402031CE428E52861
:1001C800F4282008A4022108031C210FA5022208F4
:1001D800031C220FA6022308031C230FA7022914BD
:1001E80001300310A30CA20CA10CA00CFF3E031DB0
:1001F800F5280130AD02031D02290329CA282C085D
:10020800A3002B08A2002A08A1002908A0000800C2
:10021800003083120313AB000030AA000030A9009D
:100228000030A800230822042104200403191D29F2
:100238001E2969290130AC002C290130FD0003106A
:10024800A00DA10DA20DA30DFD0B23290130AC07B4
:10025800A31F2F29302921290130FD000310A80DE3
:10026800A90DAA0DAB0DFD0B322923082702031D8A
:10027800472922082602031D472921082502031DB4
:10028800472920082402031C4A294B295A292008F7
:10029800A4022108031C210FA5022208031C220F17
:1002A800A6022308031C230FA702281401300310F9
:1002B800A30CA20CA10CA00CFF3E031D5B2901306E
:1002C800AC02031D6829692930292B08A3002A08D4
:1002D800A2002908A1002808A0000800831203131F
:1002E800B3000030B7000030B6000230B500583017
:1002F800B4000030A3000030A2000030A100B430E8
:10030800A0003308AF00B001B101B2013208F30018
:100318003108F2003008F1002F08F0000030F70033
:100328000030F6000930F5006030F4000A128A1136
:1003380014220A128A11730883120313A700720881
:10034800A6007108A5007008A4000A128A110C21E1
:100358000A128A11831203132008B4072108031113
:100368000318013E0319B929B50722080311031818
:10037800013E0319C029B607230803110318013EDB
:100388000319C729B7073508AE003408AD000800BF
:10039800003083120313CB000030CA000030C900BC
:1003A8000030C8003F1CD929DA29F1294308C807B9
:1003B800440803110318013E0319E329C907450836
:1003C80003110318013E0319EA29CA074608031155
:1003D8000318013E0319F129CB070130C7000310A8
:1003E800C30DC40DC50DC60DC70BF329013003108D
:1003F800C20CC10CC00CBF0CFF3E031DFB294208F8
:10040800410440043F04031D0A2A0B2AD6294B083D
:10041800C2004A08C1004908C0004808BF000800D7
:100428000030FC000030FB000030FA000030F9001A
:10043800701C1F2A202A372A7408F9077508031127
:100448000318013E0319292AFA077608031103182D
:10045800013E0319302AFB07770803110318013EF0
:100468000319372AFC070130F8000310F40DF50DC5
:10047800F60DF70DF80B392A01300310F30CF20CC6
:10048800F10CF00CFF3E031D412A7308720471043D
:100498007004031D502A512A1C2A7C08F3007B088B
:1004A800F2007A08F1007908F000080083120313BB
:1004B8004F08803A7F3E031C622A632A832A500829
:1004C800013EB800003003180130B9003908803AFD
:1004D800FF0080307F02031D732AB4303802031CEA
:1004E800762A772A7E2AB43083120313D000FF308D
:1004F800CF008F2A013083120313D0078F2A0230CE
:1005080050020318882A892A8D2AD0010130CF0089
:100518008F2A0130D00250080A128A1172210A1259
:100528008A11831203132E08CD002D08CC00080071
:100538000C1C9F2AA02ACB2A0C104E080319A52AA6
:10054800A62ABF2A0711CE012030BA004E30BB00C0
:100558004C083A02F0004D08031C4D0A3B02F1001A
:100568000A128A1124230A128A110A128A115A229B
:100578000A128A11CB2A07150130CE004D08F10066
:100588004C08F0000A128A1124230A128A118312D5
:1005980003133E08FF003D088A003C0E8300FE0E50
:1005A8007E0E090083160313071183120313071124
:1005B800D0010130CF0050080A128A1130200A12E7
:1005C8008A11831603132F0883120313CD00831691
:1005D80003132E0883120313CC00900190101012FD
:1005E800901290110C10831603130C140B178B1711
:1005F8008312031307150130CE004D08C0004C08C4
:10060800BF000A128A110E230A128A1183120313D9
:10061800101408000310831203133F0DC300400D8C
:10062800C400C101C20143084102C5004408031CBB
:10063800440A4202C60046088F0045088E0008009A
:100648000310700DF400710DF500F201F301740848
:100658007202F6007508031C750A7302F700770822
:10066800831203138F0076088E0008000A128A117D
:1006780048230A128A110A128A11D6220A128A11EA
:10068800442B0A128A11102883160317880189013E
:100698008312031387018316031387010800583454
:0606A800023401340134AC
:04400E00F22FFF3F4F
:00000001FF
